:100000000C9434000C9451000C9451000C94510049
:100010000C9451000C9451000C9451000C9451001C
:100020000C9451000C9451000C9451000C9451000C
:100030000C9451000C9451000C9451000C945100FC
:100040000C9451000C9451000C9451000C945100EC
:100050000C9451000C9451000C9451000C945100DC
:100060000C9451000C94510011241FBECFEFD8E026
:10007000DEBFCDBF11E0A0E0B1E0E2E6F4E002C0F7
:1000800005900D92A430B107D9F721E0A4E0B1E0CA
:1000900001C01D92A630B207E1F70E94CD000C947A
:1000A0002F020C940000E0910201F091030182E81C
:1000B00080838AE181838CE9878380E486838BE077
:1000C000818788EB808710920501109204010895C2
:1000D0008091040190910501009719F0019779F042
:1000E000089581E090E09093050180930401E091F0
:1000F0000201F091030183E1818788E80BC010922F
:10010000050110920401E0910201F09103018BE0DE
:10011000818788EE80870895E0910201F0910301C4
:100120008BE0818788EE80870895E0910201F0914D
:10013000030183E1818788E880870895E0910201C7
:10014000F09103018BE0818788EB80870895529AB4
:100150004C9A08958AE08A95F1F700C05A9A85E38F
:100160008A95F1F700005A9860E070E0CB0120E03A
:100170004C9B06C06F5F7F4F8F4F9F4F21E0F8CFA2
:100180002223A9F30E94340127EE3AE34DE05CE319
:100190000E949A010E9405010895CF93DF9300D039
:1001A00000D0CDB7DEB782E084B90E94A7000E94DC
:1001B00053000E9495000E94AA00643171058105D8
:1001C0009105C8F70E948C0019821A821B821C823A
:1001D00089819A81AB81BC81803B964AA741B10558
:1001E00060F489819A81AB81BC810196A11DB11D0A
:1001F00089839A83AB83BC83EBCF0E94AA006431CE
:10020000710581059105C8F3D4CF0E94790188F06A
:100210009F5798F0B92F9927B751B0F0E1F0660FCA
:10022000771F881F991F1AF0BA95C9F714C0B1300B
:1002300091F00E949301B1E008950C949301672F0F
:10024000782F8827B85F39F0B93FCCF3869577953A
:100250006795B395D9F73EF4909580957095619523
:100260007F4F8F4F9F4F0895E89409C097FB3EF44E
:1002700090958095709561957F4F8F4F9F4F9923F3
:10028000A9F0F92F96E9BB279395F6958795779571
:100290006795B795F111F8CFFAF4BB0F11F460FF31
:1002A0001BC06F5F7F4F8F4F9F4F16C0882311F089
:1002B00096E911C0772321F09EE8872F762F05C09D
:1002C000662371F096E8862F70E060E02AF09A9538
:1002D000660F771F881FDAF7880F9695879597F92D
:1002E000089557FD9058440F551F59F05F3F71F026
:1002F0004795880F97FB991F61F09F3F79F087958D
:100300000895121613061406551FF2CF4695F1DF15
:1003100008C0161617061806991FF1CF86957105A5
:10032000610508940895E894BB2766277727CB01D9
:1003300097F908950E94AD010C941E020E941002CC
:1003400038F00E94170220F0952311F00C94070258
:100350000C940D0211240C9494010E94710170F30D
:10036000959FC1F3950F50E0551F629FF001729F5A
:10037000BB27F00DB11D639FAA27F00DB11DAA1F69
:10038000649F6627B00DA11D661F829F2227B00DB6
:10039000A11D621F739FB00DA11D621F839FA00D41
:1003A000611D221F749F3327A00D611D231F849F91
:1003B000600D211D822F762F6A2F11249F575040E8
:1003C0009AF0F1F088234AF0EE0FFF1FBB1F661F63
:1003D000771F881F91505040A9F79E3F510580F02C
:1003E0000C9407020C9494015F3FE4F3983ED4F31D
:1003F000869577956795B795F795E7959F5FC1F7D0
:10040000FE2B880F911D9695879597F9089597F97A
:100410009F6780E870E060E008959FEF80EC0895AA
:1004200000240A94161617061806090608950024D3
:100430000A9412161306140605060895092E03944D
:10044000000C11F4882352F0BB0F40F4BF2B11F4C1
:1004500060FF04C06F5F7F4F8F4F9F4F0895F894E8
:02046000FFCFCC
:040462006F008000A7
:00000001FF
