:100000000C9434000C9449000C9449000C94490061
:100010000C9449000C9449000C9449000C9449003C
:100020000C9449000C9449000C9449000C9449002C
:100030000C9449000C9449000C9449000C9449001C
:100040000C9449000C9449000C9449000C9449000C
:100050000C9449000C9449000C9449000C944900FC
:100060000C9449000C94490011241FBECFEFD8E036
:10007000DEBFCDBF11E0A0E0B1E0E8E2F1E002C0F8
:1000800005900D92A230B107D9F70E9469000C9437
:1000900092000C940000E0910001F09101011582A2
:1000A00087E6848386E0828388E181830895E091F6
:1000B0000001F0910101908195FFFDCF86830895A5
:1000C000E0910001F0910101808187FFFDCF8681E1
:1000D0000895CF930E944B0083E70E94570084E766
:1000E0000E94570081E60E94570082E70E94570055
:1000F00084E70E9457008DE00E9457008AE00E942A
:1001000057000E946000C82F0E9457008DE00E9497
:1001100057008AE00E945700C13799F780E090E0CD
:08012000CF910895F894FFCF80
:02012800C00015
:00000001FF
