:100000000C945D000C9485000C9485000C94850084
:100010000C9485000C9485000C9485000C9485004C
:100020000C9485000C9485000C9485000C9485003C
:100030000C9485000C9485000C9485000C9485002C
:100040000C9421060C9485000C94DE070C94210876
:100050000C9485000C9485000C9485000C9485000C
:100060000C9485000C94850000000007000201003C
:100070000003040600000000000000000102040864
:100080001020408001020408102001020408102002
:10009000040404040404040402020202020203032E
:1000A0000303030300000000250028002B000000CC
:1000B0000000240027002A00E00811241FBECFEF13
:1000C000D8E0DEBFCDBF11E0A0E0B1E0EAE8F2E1A8
:1000D00002C005900D92AA31B107D9F722E0AAE13A
:1000E000B1E001C01D92A53EB207E1F710E0CDE5F9
:1000F000D0E004C02197FE010E943D09CC35D10714
:10010000C9F70E94F1060C9443090C9400008091F9
:100110003002909131020196909331028093300227
:1001200065E18BE392E00C943D076091010180EE64
:10013000860F813A28F0809100018195809300011B
:1001400080910001680F6093010170E089E00E94D6
:10015000C20564E170E080E090E00C9490061F938B
:10016000CF93DF93182FEB0161E0812F0E9493055D
:100170006EE170E080E090E00E94900660E0812FE8
:100180000E9493056EE170E080E090E00E9490068E
:10019000219750F7DF91CF911F91089540E05BE4E4
:1001A00060E070E08BE392E00E945C0861E087E031
:1001B0000E94570562E070E087E090E00E94AF0087
:1001C00061E088E00E94570562E070E088E090E01E
:1001D0000E94AF0061E089E00E94570562E070E094
:1001E00089E090E00C94AF00682F87E00C949305B1
:1001F00083E58CBD8DB58EB508950DB407FEFDCF9A
:1002000008958EBD0E94FD008EB508951F93CF9373
:10021000DF93162FD42FC22F0E9401011EBD0E9412
:10022000FD008EB5DEBD0E94FD008EB5CEBD0E94E4
:10023000FD008EB5DF91CF911F910895AAE1B1E045
:10024000ECE2F1E080818C93818111968C9311977F
:10025000828112968C931297838113968C931397B5
:10026000848114968C931497858115968C93159799
:10027000868116968C931697878117968C9317977D
:10028000808590E019969C938E931897828590E0D4
:10029000982F88272385820F911D1B969C938E9300
:1002A0001A97848590E0982F88272585820F911DC5
:1002B0001D969C938E931C97868590E0982F882797
:1002C0002785820F911D1F969C938E931E9782897E
:1002D00090E0982F88272389820F911D51969C9337
:1002E0008E93509708950E94F80061E08AE00E9482
:1002F000570561E08AE00E94930561E08DE00E946D
:10030000570560E08DE00E94930562E370E080E0B5
:1003100090E00E94900660E08AE00E94930562E30C
:1003200070E080E090E00E94900660E08CE00E9427
:10033000570561E08BE00E94570520E040E063E54F
:100340008CEA0E94060181E090E090932F02809356
:100350002E02089560E08CE00E94570560E08BE07B
:100360000E94570560E08DE00E94570560E08AE03A
:100370000E94570510922F0210922E020895242FEA
:10038000880F880F880F462F672F805C0C9406011A
:10039000CF93DF93D82FC92F80E090E00E94F40024
:1003A00020E04D2F6C2F8CE40E9406016EE170E07E
:1003B00080E090E00E94900681E090E0DF91CF9194
:1003C0000C94F400209126013091270180912C0299
:1003D00090912D022032310511F4807F0895203450
:1003E000310511F4807E08952038310511F4807CA8
:1003F00008952115314009F480780895CF92DF9255
:10040000EF92FF920F931F93CF93DF936C01809134
:100410002C0290912D020E94E2018C01CCE2D1E0ED
:10042000CE018C5291408C159D0584F580912C0253
:1004300090912D020E94E2017C010817190751F0EA
:10044000C8010E94C80180912C0290912D020E9447
:10045000E2017C0160912C0270912D02488180E0C4
:100460000E94BF0160912C0270912D02498181E0B0
:100470000E94BF0180912C0290912D0201969093D1
:100480002D0280932C0222968701CACFC8010E94B8
:10049000C80180E1DF91CF911F910F91FF90EF9004
:1004A000DF90CF900895462F880F880F880F20E0A7
:1004B000672F805E0C9406010F931F93CF93DF93F9
:1004C0008C01C0E0D0E0C017D1071CF560912C0270
:1004D00070912D0280E00E945302682F8BE392E01E
:1004E0000E943D0760912C0270912D0281E00E94D4
:1004F0005302682F8BE392E00E943D0780912C020B
:1005000090912D02019690932D0280932C022296B9
:10051000DACF80E1DF91CF911F910F910895EF9293
:10052000FF920F931F93CF93DF937C0100912C02D6
:1005300010912D02000F111FE801CE01801B910BBD
:100540008E159F056CF42FEF4C2F6D2F80EA0E94C3
:100550000601682F8BE392E00E943D072196EDCFC4
:1005600080E1DF91CF911F910F91FF90EF9008955F
:100570008BE392E00E944407892BD1F38BE392E056
:100580000E94700708950F931F93CF93DF938C0100
:10059000CCE2D1E0CE018C5291408017910724F437
:1005A0000E94B8028993F6CFDF91CF911F910F91EE
:1005B0000895EF92FF920F931F93CF93DF938C01D7
:1005C0007B01CB010E94C30280E090E00E94F40016
:1005D000E8010CE211E0C8018C5291408E159F0594
:1005E00084F4F80121918F014C2F6D2F80EC0E9433
:1005F00006016DE270E080E090E00E949006219696
:10060000EACF81E090E00E94F40080E1DF91CF9199
:100610001F910F91FF90EF9008950F931F93CF9329
:10062000DF938C0180912801909129018017910717
:100630005CF48091300290913102019690933102E6
:100640008093300281E117C0C0912C02D0912D021D
:10065000CC0FDD1F013211054CF060E270E0CE01DD
:100660000E94D902A09600521109F4CFB801CE0120
:100670000E94D90280E1DF91CF911F910F910895DF
:100680000E94B802803239F464E18BE392E00E9468
:100690003D0760E10AC080913002909131020196DD
:1006A000909331028093300265E18BE392E00C94E9
:1006B0003D07CF93C82F0E94B802803261F464E1F5
:1006C0008BE392E00E943D076C2F8BE392E00E9447
:1006D0003D0760E10AC0809130029091310201969D
:1006E000909331028093300265E18BE392E0CF91E9
:1006F0000C943D07813859F020F4803861F482E091
:100700000BC0823831F0833931F483E505C081E0D4
:1007100003C082E101C080E00C94590384E090E0C2
:100720000E94C302ECE2F1E0238142816181808179
:100730000E9406010C945903CF93DF93EC010E94B1
:10074000C3020E94B802803251F464E18BE392E06C
:100750000E943D07CE010E94FE01682F0AC08091D1
:1007600030029091310201969093310280933002D1
:1007700065E18BE392E0DF91CF910C943D07CF933D
:10078000DF930E94B802C82FD0E0DC2FCC270E9454
:10079000B802C80FD11D0E94B802863429F4CE01D8
:1007A000DF91CF910C949C03853499F4CE010E9483
:1007B0000D03C82F0E94B802803239F464E18BE344
:1007C00092E00E943D076C2F05C0DF91CF910C9401
:1007D000870061E18BE392E0DF91CF910C943D07BC
:1007E0000F931F93CF93DF930E94B802C82F0E94EC
:1007F000B802082F0E94B802182F0E94B802803257
:1008000031F0DF91CF911F910F910C948700D0E0D0
:10081000DC2FCC27C00FD11D64E18BE392E00E9456
:100820003D07163421F4CE010E945C0207C0153446
:1008300021F4CE010E948F0201C081E1682F8BE379
:1008400092E0DF91CF911F910F910C943D070E9490
:10085000B802803259F080913002909131020196B5
:10086000909331028093300265E127C064E18BE30D
:1008700092E00E943D0720E040E060E080E30E94BB
:100880000601682F8BE392E00E943D0720E041E0E3
:1008900060E080E30E940601682F8BE392E00E94F3
:1008A0003D0720E042E060E080E30E940601682FFF
:1008B0008BE392E00E943D0760E18BE392E00C94B1
:1008C0003D070E94B802813509F484C038F58134AF
:1008D00009F468C098F4803309F44DC0813309F4F9
:1008E0004FC0803209F082C0809130029091310275
:1008F0000196909331028093300287C0853409F4C9
:1009000056C0803509F458C0823409F06FC084E1C4
:1009100090E00E94C3020E941E0162C0813609F469
:1009200050C000F5863509F452C0803609F447C03E
:10093000853509F05BC00E94B80290E090932D02CB
:1009400080932C020E94B80290E0982F8827209173
:100950002C0230912D02820F931F90932D028093D1
:100960002C023EC0843781F18537E9F18436F1F5F8
:100970000E94BF030895109231021092300230C0DD
:100980000E94B802803209F045C064E18BE392E036
:100990000E943D0762E071E08BE392E00E943B071A
:1009A00060E134C00E94B8020E947A03089585E095
:1009B00090E00E94C30214C00E94730111C00E9403
:1009C000B8020E94B8020CC00E94F00308950E9471
:1009D0008E03089510923102109230020E94AA01F3
:1009E0000E94400308950E942704089580913002D8
:1009F00090913102019690933102809330020E94CF
:100A0000B802803211F462E101C065E18BE392E04B
:100A10000C943D07089580912E0290912F02892B0E
:100A200011F061E001C060E087E00E9493058091D1
:100A3000300290913102892B11F061E001C060E039
:100A400088E00E9493050E9495008BE392E00E944B
:100A50004407892B11F00C9461040895833081F0D0
:100A600028F4813099F08230A1F008958630A9F001
:100A70008730B9F08430D1F4809180008F7D03C03D
:100A8000809180008F7780938000089584B58F7760
:100A900002C084B58F7D84BD08958091B0008F77AA
:100AA00003C08091B0008F7D8093B0000895CF93F4
:100AB000DF9390E0FC01E458FF4F2491FC01E057E4
:100AC000FF4F8491882361F190E0880F991FFC010A
:100AD000E255FF4FC591D491FC01EC55FF4FA59114
:100AE000B491611109C09FB7F89488812095822341
:100AF0008883EC912E230BC0623061F49FB7F89489
:100B00008881322F309583238883EC912E2B2C9370
:100B10009FBF06C08FB7F894E8812E2B28838FBF24
:100B2000DF91CF9108951F93CF93DF93282F30E06B
:100B3000F901E859FF4F8491F901E458FF4FD4912E
:100B4000F901E057FF4FC491CC23C1F0162F81115A
:100B50000E942E05EC2FF0E0EE0FFF1FEC55FF4F2B
:100B6000A591B4919FB7F894111104C08C91D095C0
:100B7000D82302C0EC91DE2BDC939FBFDF91CF9195
:100B80001F9108951F93CF93DF93182FEB0161E01E
:100B90000E945705209711F460E004C0CF3FD105B3
:100BA00039F461E0812FDF91CF911F910C9493056F
:100BB000E12FF0E0E859FF4FE491E330F9F048F419
:100BC000E130B9F0E230A1F584B5806284BDC8BDE2
:100BD00034C0E630E9F0E73019F1E43049F58091AE
:100BE0008000806280938000D0938B00C0938A0045
:100BF00024C084B5806884BDC7BD1FC080918000BB
:100C0000806880938000D0938900C093880015C0CD
:100C10008091B00080688093B000C093B3000DC095
:100C20008091B00080628093B000C093B40005C092
:100C3000C038D1050CF0B5CFAFCFDF91CF911F9168
:100C400008951F920F920FB60F9211242F933F9386
:100C50008F939F93AF93BF9380913302909134020F
:100C6000A0913502B09136023091320223E0230F79
:100C70002D3720F40196A11DB11D05C026E8230FD4
:100C80000296A11DB11D20933202809333029093EE
:100C90003402A0933502B0933602809137029091CE
:100CA0003802A0913902B0913A020196A11DB11DFE
:100CB0008093370290933802A0933902B0933A029E
:100CC000BF91AF919F918F913F912F910F900FBE48
:100CD0000F901F9018953FB7F8948091370290912C
:100CE0003802A0913902B0913A0226B5A89B05C0FE
:100CF0002F3F19F00196A11DB11D3FBFBA2FA92F9B
:100D0000982F8827820F911DA11DB11DBC01CD0117
:100D100042E0660F771F881F991F4A95D1F7089503
:100D2000CF92DF92EF92FF92CF93DF936B017C0122
:100D30000E946B06EB01C114D104E104F10479F0C7
:100D40000E946B066C1B7D0B683E7340A0F381E034
:100D5000C81AD108E108F108C851DC4FECCFDF9187
:100D6000CF91FF90EF90DF90CF900895789484B565
:100D7000826084BD84B5816084BD85B5826085BD97
:100D800085B5816085BDEEE6F0E08081816080837D
:100D9000E1E8F0E010828081826080838081816060
:100DA0008083E0E8F0E0808181608083E1EBF0E027
:100DB000808184608083E0EBF0E0808181608083CB
:100DC000EAE7F0E0808184608083808182608083B4
:100DD0008081816080838081806880831092C100DF
:100DE00008950E94B6060E94CE00C8E1D8E00E9495
:100DF0000B052097E1F30E941808F9CFCF92DF92FC
:100E0000EF92FF920F931F93CF93DF936C01EB014F
:100E10007B01E40EF51E00E010E0CE15DF0561F069
:100E20006991D601ED91FC910190F081E02DC60110
:100E30000995080F191FF1CFC801DF91CF911F91BC
:100E40000F91FF90EF90DF90CF900895611571059D
:100E500079F0FB0101900020E9F73197AF01461BC3
:100E6000570BDC01ED91FC910280F381E02D099498
:100E700080E090E008950C942607DC01ED91FC9150
:100E80000190F081E02D0994FC0124853585F9015C
:100E9000E05CFF4F80819181329620813181821BFD
:100EA000930B8F7399270895DC011C96ED91FC91AB
:100EB0001D97DF01A05CBF4F2D913C9111971296B9
:100EC0008D919C9111972817390739F08D919C913C
:100ED000E80FF91F808190E008958FEF9FEF08954C
:100EE000FC01A485B585FD01E05CFF4F20813181C7
:100EF0003296808191812817390779F0808191811C
:100F0000A80FB91F8C91208131812F5F3F4F2F7324
:100F100033273183208390E008958FEF9FEF08956A
:100F2000FC0181A1882329F0A489B5898C9186FFD1
:100F3000FBCF11A208950F931F93CF93DF93FC0172
:100F4000A685B7858D01005C1F4FE80188819981D6
:100F500001968F739927AD014E5B5F4FEA0128819F
:100F6000398128173907D1F3E80128813981A20F87
:100F7000B31F6C93A685B785A05CBF4F11969C9359
:100F80008E93A689B7892C9181E090E0078C02C0EE
:100F9000880F991F0A94E2F7822B8C9381E081A33A
:100FA0000488F589E02D80818064808381E090E071
:100FB000DF91CF911F910F91089508951F920F9285
:100FC0000FB60F9211242F934F935F938F939F939C
:100FD000EF93FF938091C00082FD1CC02091C6005A
:100FE0008091E1029091E2024091E3025091E4028B
:100FF00001968F7399274817590771F0E091E10224
:10100000F091E202EF55FD4F20839093E20280932E
:10101000E10202C08091C600FF91EF919F918F91F4
:101020005F914F912F910F900FBE0F901F901895C9
:101030008BE392E00E944407892B11F00C94DD07AA
:1010400008951F920F920FB60F9211242F933F9382
:101050008F939F93EF93FF9320919D0230919E0277
:1010600080919F029091A0022817390731F4809156
:10107000C1008F7D8093C10014C0E0919F02F09168
:10108000A002E35AFD4F208180919F029091A0021F
:1010900001968F7399279093A00280939F022093CB
:1010A000C600FF91EF919F918F913F912F910F90EB
:1010B0000FBE0F901F901895CF92DF92EF92FF9284
:1010C000CF93DF93EC016A017B014115514E61051D
:1010D000710509F1EC89FD8981E090E008A002C06A
:1010E000880F991F0A94E2F7808360E079E08DE32E
:1010F00090E0A70196010E941B09DA01C90101973E
:10110000A109B109B695A795979587959C012115D9
:1011100080E13807A8F0EC89FD89108260E874E866
:101120008EE190E0A70196010E941B09DA01C90136
:101130000197A109B109B695A795979587959C0147
:10114000E889F9893083EA89FB89208319A2EE892D
:10115000FF89408181E090E09C010C8C02C0220F4D
:10116000331F0A94E2F7242B2083EE89FF89408104
:101170009C010D8C02C0220F331F0A94E2F7242B2E
:101180002083EE89FF8940819C010E8C02C0220FD2
:10119000331F0A94E2F7242B2083EE89FF892081F4
:1011A0000F8C02C0880F991F0A94E2F78095822362
:1011B0008083DF91CF91FF90EF90DF90CF900895E3
:1011C000EBE3F2E01382128288EE93E0A0E0B0E05D
:1011D00084839583A683B7838EE091E09183808397
:1011E00081EA92E0958784878DE592E097878687EC
:1011F00085EC90E0918B808B84EC90E0938B828BDC
:1012000080EC90E0958B848B81EC90E0978B868BC3
:1012100082EC90E0918F808F86EC90E0938F828FAC
:1012200084E0848F83E0858F87E0868F85E0878FD9
:1012300081E080A30895A1E21A2EAA1BBB1BFD0129
:101240000DC0AA1FBB1FEE1FFF1FA217B307E407A5
:10125000F50720F0A21BB30BE40BF50B661F771FFD
:10126000881F991F1A9469F76095709580959095DD
:101270009B01AC01BD01CF010895EE0FFF1F05904A
:0A128000F491E02D0994F894FFCFDB
:10128A0008804156522049535000000000009B0735
:0A129A00FE06440770075407900792
:00000001FF
