S010000062617265626F6E652E73726563D6
S3158006000040806000000000004080900000000000F4
S315800600104080980000000000400880002401FFF818
S315800600200101402435080002408880003C1DA00F4F
S315800600300C01804037BDFFF00801800E00000000ED
S315800600400000000000000000000000000000000024
S315800600501880002027BDFFF83C0280068C49016483
S315800600603C0280068C4601600000402108018031F2
S315800600700000502100451821AFA300008FA3000081
S3158006008024630005AFA30000244200010046182A17
S315800600901460FFF90045182124E7000100E9102ABB
S315800600A01040000500A828211CC0FFF20000102180
S315800600B00801802724E70001254A0001114400052E
S315800600C0250800781920FFFC000028210801802ACF
S315800600D00000382103E0000827BD00083C02B8046A
S315800600E08C4400083C030C02246300010083182616
S315800600F0AC4300088C42000803E0000800000000BC
S3158006010027BDFFE8AFBF00143C02B8048C44000844
S315800601103C03F3FD3463FFFE00831824AC430008DA
S315800601208C4200080C018037000000000C01801408
S315800601302404000208018049000000000000000037
S315800601600000003C00004718000000000000000068
S7058006000074
