:100000000C9465010C9482010C9482010C94820181
:100010000C9482010C9482010C9482010C94820154
:100020000C9482010C9482010C9482010C94820144
:100030000C9482010C9482010C9482010C94820134
:100040000C9482010C9482010C9482010C94820124
:100050000C9482010C9482010C9482010C94820114
:100060000C9482010C94820107634236B79BD8A797
:100070001A39685618AEBAAB558C1D3CB7CC5763CD
:10008000BD6DEDFD753EF6177231BF000000803F7B
:1000900008000000BE922449123EABAAAA2ABECD97
:1000A000CCCC4C3E00000080BEABAAAAAA3E000009
:1000B0000000BF000000803F000000000008417801
:1000C000D3BB4387D1133D190E3CC3BD4282AD2B38
:1000D0003E68EC8276BED98FE1A93E4C80EFFFBE30
:1000E00001C4FF7F3F00000000000000000000008E
:1000F000005F00000007000700147F147F14242A0B
:100100007F2A1223130864623649552250000503E2
:100110000000001C2241000041221C00082A1C2A69
:100120000808083E080800503000000808080808C1
:10013000003030000020100804023E5149453E00C6
:10014000427F400042615149462141454B311814DC
:10015000127F1027454545393C4A4949300171090C
:1001600005033649494936064949291E00363600F5
:100170000000563600000008142241141414141410
:1001800041221408000201510906324979413E7E9C
:100190001111117E7F494949363E414141227F413B
:1001A00041221C7F494949417F090901013E4141E2
:1001B00051327F0808087F00417F41002040413FC5
:1001C000017F081422417F404040407F0204027FAB
:1001D0007F0408107F3E4141413E7F090909063EE8
:1001E0004151215E7F09192946464949493101019A
:1001F0007F01013F4040403F1F2040201F7F2018CB
:10020000207F631408146303047804036151494593
:100210004300007F4141020408102041417F00005B
:10022000040201020440404040400001020400205A
:10023000545454787F484444383844444420384423
:1002400044487F3854545418087E09010208145455
:10025000543C7F0804047800447D40002040443D25
:1002600000007F10284400417F40007C041804787F
:100270007C0804047838444444387C141414080876
:100280001414187C7C080404084854545420043F77
:100290004440203C4040207C1C2040201C3C4030FE
:1002A000403C44281028440C5050503C4464544C6A
:1002B00044000836410000007F000000413608007D
:1002C00008082A1C08081C2A080811241FBECFEFA2
:1002D000D8E0DEBFCDBF11E0A0E0B1E0E2ECF0E19C
:1002E00002C005900D92A431B107D9F721E0A4E135
:1002F000B1E001C01D92A531B207E1F70E948B0465
:100300000C945F080C940000E0910001F091010151
:100310008481806484830895E0910001F09101015B
:100320009481892B848387EC8283828186FDFDCF33
:100330002081818190E0982F8827820F911D089558
:10034000E0910601F09107019081977F9083E09101
:100350000601F091070190819F7D9083E091060155
:10036000F0910701882319F08081806102C08081AB
:100370008F7E8083E0910601F09107018081806289
:10038000808388E0E0910601F091070190819F7DD4
:100390009083E0910601F0910701908167FF02C010
:1003A000906101C09F7E9083E0910601F09107016A
:1003B000908190629083660F815021F7E091060151
:1003C000F09107018081886080830895CF93DF9347
:1003D00060E480E00E94A00160EB80E00E94A00148
:1003E00060E180E00E94A00160E080E00E94A00146
:1003F000C0E6D3E060E081E00E94A0012197D1F740
:10040000DF91CF910895E0910201F091030180E81E
:100410008083E0910401F09105018FEF8083E091EA
:100420000601F091070180818B7F8083E0910601B6
:10043000F0910701808188608083E0910601F0914E
:10044000070180818F7D8083E0910601F091070193
:1004500080818B7F8083E0910601F091070180818C
:10046000846080836FE280E00E94A00164E280E00B
:100470000E94A00165E880E00E94A0016FEA80E090
:100480000E94A00164EA80E00E94A00166EA80E088
:100490000E94A0012FEF83EC99E021508040904012
:1004A000E1F700C000000C94E601CF93C82F682F3D
:1004B00065956595659565956770606180E00E94BA
:1004C000A0016C2F6F7080E0CF910C94A00160E0D0
:1004D00088301CF088506F5FFBCF815080931401EF
:1004E0006F70606B80E00C94A001CF93C82F6F7089
:1004F000606B80E00E94A0016C2F6F7080E00E9412
:10050000A0016C2F6595659565956595677060612F
:1005100080E0CF910C94A001EF92FF920F931F9374
:10052000CF93DF93CDB7DEB728970FB6F894DEBF31
:100530000FBECDBFE82E8E010F5F1F4FCE01099673
:10054000F80111928E179F07E1F787E09FEFF801FE
:10055000E80FF11D87FDFA956A3024F0908368500A
:100560008150F5CF161634F480818595806880839C
:100570006150F8CFF12C6F2D606B80E00E94A001DC
:100580008E2D0E945502F80161918F0181E00E9439
:10059000A001F394F8E0FF12EECF28960FB6F8947E
:1005A000DEBF0FBECDBFDF91CF911F910F91FF90A6
:1005B000EF900895CF92DF92EF92FF920F931F93E7
:1005C000CF93DF93CDB7DEB728970FB6F894DEBF91
:1005D0000FBECDBF082FCE0101967C010896F70112
:1005E0001192E817F907E1F780E090E030E020E0B1
:1005F00070E050E0CC24C394D12C861797078CF080
:100600004817590774F0D701A30FB11D37FDBA95EC
:100610001C91F601022E01C0EE0F0A94EAF7E12BBD
:10062000EC932F5F283011F43F5F20E00196803477
:10063000910519F710E0612F606B80E00E94A00126
:10064000802F0E945502F70161917F0181E00E9495
:10065000A0011F5F183079F728960FB6F894DEBF17
:100660000FBECDBFDF91CF911F910F91FF90EF9003
:10067000DF90CF9008950F931F93CF93DF9325E0E2
:100680008202C0011124C0E0D0E08C01005A11099F
:10069000F801EC0FFD1FE651FF4F6491660F81E0FA
:1006A0000E94A0012196C530D10591F760E081E05C
:1006B000DF91CF911F910F910C94A001CF93DF9305
:1006C000EC018991882319F00E943B03FACFDF9156
:1006D000CF910895AC0181E090E020E030E0261752
:1006E00037075CF4FC01E49FC001E59F900DF49F87
:1006F000900D11242F5F3F4FF2CF0895AF92BF921C
:10070000CF92DF92FF920F931F93CF93DF9300D08E
:1007100000D0CDB7DEB7482FF92E9B01615071098B
:10072000E1E0F0E080E090E05AE08617970744F4BB
:10073000DF015A9FF0015B9FF00D11240196F5CF68
:100740008E010F5F1F4F68018AE0A82EB12CC601F1
:10075000801B910B821793078CF4842F9F2DBF0170
:100760000E94A204605DD6016D936D01482FF92EA1
:10077000CF01B5010E94A204FB01E9CF37FF02C0FF
:1007800020E030E0F801E20FF31F1082C8010E9460
:100790005E030F900F900F900F90DF91CF911F91FC
:1007A0000F91FF90DF90CF90BF90AF900895BF92D0
:1007B000CF92DF92EF92FF920F931F93CF93DF932D
:1007C00000D000D01F92CDB7DEB720E030E048EC7B
:1007D00052E40E946D060E94A905462F172F8EE253
:1007E0008A83FE01319684E6E82EF12C20E030E089
:1007F000BE2E0F2F9AE0C92ED12C2130310571F079
:10080000842F912FB7010E94A204605D6083482F5E
:10081000192FC701B6010E94A2047B012F5F3F4F31
:1008200031962430310549F71D828B2D902F0E947F
:100830005E030F900F900F900F900F90DF91CF916C
:100840001F910F91FF90EF90DF90CF90BF90089590
:10085000CF92DF92EF92FF92BC01990F880B990B18
:100860000E94E1052AE038E240EA5BE30E946D065F
:100870006B017C019B01AC0160E070E080EA90E4D8
:100880000E94CA04A70196010E94370520E030E0CB
:100890004AE754E40E946D0620E038EB4AEA55E44A
:1008A0000E94370522EB3DE94FEB5FEB0E94DA0631
:1008B0002EE835E741ED5EE30E946D06FF90EF9074
:1008C000DF90CF900895CF92DF92EF92FF92CF9377
:1008D000DF936B017C01EA0163E088E10E9475020D
:1008E00088E091E00E945E0363E070E0CE010E9428
:1008F0007E0364E088E10E9475028DE091E00E9431
:100900005E03C701B601DF91CF91FF90EF90DF90BA
:10091000CF900C94D7030E9403020E94840180E0D0
:100920000E948C01EC010E942804AE010E94630425
:100930002FEF89E698E1215080409040E1F700C018
:100940000000EDCF97FB072E16F4009407D077FD3B
:1009500009D00E94B60407FC05D03EF4909581951D
:100960009F4F0895709561957F4F0895AA1BBB1BFB
:1009700051E107C0AA1FBB1FA617B70710F0A61B9F
:10098000B70B881F991F5A95A9F780959095BC01C0
:10099000CD0108955058BB27AA270E94E2040C9469
:1009A00033060E94250638F00E942C0620F039F408
:1009B0009F3F19F426F40C9422060EF4E095E7FB11
:1009C0000C941C06E92F0E94440658F3BA176207DC
:1009D00073078407950720F079F4A6F50C94660652
:1009E0000EF4E0950B2EBA2FA02D0B01B90190014A
:1009F0000C01CA01A0011124FF27591B99F0593F8E
:100A000050F4503E68F11A16F040A22F232F342FD5
:100A10004427585FF3CF469537952795A795F04023
:100A20005395C9F77EF41F16BA0B620B730B840B38
:100A3000BAF09150A1F0FF0FBB1F661F771F881FF0
:100A4000C2F70EC0BA0F621F731F841F48F4879548
:100A500077956795B795F7959E3F08F0B0CF93953A
:100A6000880F08F09927EE0F9795879508950E94B3
:100A70004B050C9433060E942C0658F00E94250664
:100A800040F029F45F3F29F00C941C0651110C949E
:100A900067060C9422060E94440668F39923B1F37A
:100AA000552391F3951B550BBB27AA276217730794
:100AB000840738F09F5F5F4F220F331F441FAA1F28
:100AC000A9F335D00E2E3AF0E0E832D091505040E4
:100AD000E695001CCAF72BD0FE2F29D0660F771F92
:100AE000881FBB1F261737074807AB07B0E809F078
:100AF000BB0B802DBF01FF2793585F4F3AF09E3FFD
:100B0000510578F00C941C060C9467065F3FE4F3E3
:100B1000983ED4F3869577956795B795F7959F5F3F
:100B2000C9F7880F911D9695879597F90895E1E08B
:100B3000660F771F881FBB1F621773078407BA07EA
:100B400020F0621B730B840BBA0BEE1F88F7E09545
:100B500008950E94B0056894B1110C946706089539
:100B60000E944C0688F09F5798F0B92F9927B751EB
:100B7000B0F0E1F0660F771F881F991F1AF0BA9541
:100B8000C9F714C0B13091F00E946606B1E0089533
:100B90000C946606672F782F8827B85F39F0B93F25
:100BA000CCF3869577956795B395D9F73EF49095F4
:100BB0008095709561957F4F8F4F9F4F0895E89472
:100BC00009C097FB3EF490958095709561957F4F95
:100BD0008F4F9F4F9923A9F0F92F96E9BB27939543
:100BE000F695879577956795B795F111F8CFFAF453
:100BF000BB0F11F460FF1BC06F5F7F4F8F4F9F4F84
:100C000016C0882311F096E911C0772321F09EE8E1
:100C1000872F762F05C0662371F096E8862F70E047
:100C200060E02AF09A95660F771F881FDAF7880F21
:100C30009695879597F9089597F99F6780E870E0F2
:100C400060E008959FEF80EC089500240A94161642
:100C5000170618060906089500240A9412161306AA
:100C6000140605060895092E0394000C11F4882338
:100C700052F0BB0F40F4BF2B11F460FF04C06F5F54
:100C80007F4F8F4F9F4F089557FD9058440F551F2A
:100C900059F05F3F71F04795880F97FB991F61F0FE
:100CA0009F3F79F087950895121613061406551F75
:100CB000F2CF4695F1DF08C0161617061806991FE1
:100CC000F1CF86957105610508940895E894BB27D6
:100CD00066277727CB0197F908950E9480060C9428
:100CE00033060E94250638F00E942C0620F095233A
:100CF00011F00C941C060C94220611240C94670627
:100D00000E94440670F3959FC1F3950F50E0551F64
:100D1000629FF001729FBB27F00DB11D639FAA2750
:100D2000F00DB11DAA1F649F6627B00DA11D661F9F
:100D3000829F2227B00DA11D621F739FB00DA11DC0
:100D4000621F839FA00D611D221F749F3327A00D7A
:100D5000611D231F849F600D211D822F762F6A2F16
:100D600011249F5750409AF0F1F088234AF0EE0F7B
:100D7000FF1FBB1F661F771F881F91505040A9F7A8
:100D80009E3F510580F00C941C060C9467065F3F53
:100D9000E4F3983ED4F3869577956795B795F795E4
:100DA000E7959F5FC1F7FE2B880F911D969587955C
:100DB00097F90895FA01EE0FFF1F309621053105CE
:100DC000A1F16115710561F48038BFE39B0749F11A
:100DD00068949038810561F08038BFEF9B0741F03F
:100DE00099234AF5FF3FE1053105210519F1E89402
:100DF0000894E795D901AA2329F4AB2FBE2FF85FF9
:100E0000D0F310C0FF5F70F4A695E0F7F73950F00B
:100E100019F0FF3A38F49F779F930DD00F9007FC9D
:100E20009058089546F00C94220660E070E080E847
:100E30009FE308954FE79F775F934F933F932F93DF
:100E40000E94D5072F913F914F915F910E946D06AF
:100E50000C94320729F416F00C941C060C946606C8
:100E60000C9422060E944C06A8F39638A0F707F8C7
:100E70000F92E8942BE33AEA48EB5FE70E9483067F
:100E80000F920F920F924DB75EB70F920E941D08FE
:100E9000E8E6F0E00E9464074F915F91EF91FF91C7
:100EA000E595EE1FFF1F49F0FE57E0684427EE0F5F
:100EB000441FFA95E1F74195550B0E9497070F9053
:100EC00007FE0C948B070895DF93CF931F930F9326
:100ED000FF92EF92DF927B018C01689406C0DA2EBC
:100EE000EF010E948006FE01E894A59125913591BD
:100EF00045915591A6F3EF010E94E204FE0197018E
:100F0000A801DA9469F7DF90EF90FF900F911F919D
:100F1000CF91DF9108959B01AC0160E070E080E823
:100F20009FE30C9437050C941C060C9451080E9406
:100F30004C06D8F39923C9F3940F511DA3F3915094
:100F4000504094F059F0882332F0660F771F881FC5
:100F500091505040C1F79E3F51052CF7880F911DCD
:100F60009695879597F908955F3FACF0983E9CF071
:100F7000BB27869577956795B79508F4B1609395EB
:100F8000C1F7BB0F58F711F460FFE8CF6F5F7F4FD9
:100F90008F4F9F4FE3CF0C94670616F00C945108C7
:100FA0000C94220668940C941C060E944C06A8F32C
:100FB0009923C1F3AEF3DF93CF931F930F93FF9267
:100FC000C92FDD2788232AF02197660F771F881FF6
:100FD000DAF720E030E040E85FEB9FE3883920F06B
:100FE000803E38F021968F770E94CB04E0E9F0E054
:100FF00004C00E94CB04EDEBF0E00E9464078B017B
:10100000BE01EC01FB2E6F5771097595771F880B98
:10101000990B0E94E10528E132E741E35FE30E947A
:101020008006AF2D9801AE01FF900F911F91CF91D7
:10103000DF910E94E2040C943306FA01DC01AA0F4E
:10104000BB1F9B01AC01BF5728F42227332744273D
:10105000507820C0B75190F4AB2F002446953795B7
:101060002795011CA395D2F3002071F0220F331FA6
:10107000441FB395DAF30ED00C94CA0461307105A5
:10108000A0E88A07B94630F49B01AC0166277727B0
:1010900088279078309621F02083318342835383D0
:1010A00008959F3F31F0915020F48795779567958B
:1010B000B795880F911D9695879597F90895F8949F
:0210C000FFCF60
:1010C20078005500240025004144433A006D672F03
:0410D2004C3A000094
:00000001FF
