:100000000C94B5000C94D2000C94D2000C94D20045
:100010000C94D2000C94D2000C94D2000C94D20018
:100020000C94D2000C94D2000C94D2000C94D20008
:100030000C94D2000C94D2000C94D2000C94D200F8
:100040000C94D2000C94D2000C94D2000C94D200E8
:100050000C94D2000C94D2000C94D2000C94D200D8
:100060000C943F020C94D2006E616E00696E6600C3
:1000700000407A10F35A00A0724E18090010A5D45F
:10008000E80000E87648170000E40B54020000CABC
:100090009A3B000000E1F505000080969800000002
:1000A00040420F000000A086010000001027000061
:1000B0000000E803000000006400000000000A00E7
:1000C000000000000100000000002C76D888DC67EA
:1000D0004F0823DFC1DFAE59E1B1B796E5E3E45342
:1000E000C63AE651997696E8E6C28426EB898C9B5F
:1000F00062ED407C6FFCEFBC9C9F40F2BAA56FA5FF
:10010000F490055A2AF75C936B6CF9676DC11BFC80
:10011000E0E40D47FEF520E6B500D0ED902E03009B
:10012000943577050080841E080000204E0A0000E8
:1001300000C80C333333330F986E12831141EF8DA7
:100140002114893BE65516CFFEE6DB18D1844B38E7
:100150001BF77C1D901DA4BBE424203284725E2218
:100160008100C9F124ECA1E53D2711241FBECFEF8A
:10017000D8E0DEBFCDBF12E0A0E0B1E0E2E1F5E102
:1001800002C005900D92AC30B107D9F722E0ACE087
:10019000B2E001C01D92A933B207E1F70E946707E0
:1001A0000C94870A0C940000E1E3F2E0DB018D91EE
:1001B000BD018193B2E0E933FB07C1F70895EF92E7
:1001C000FF920F931F93CF93DF931F92CDB7DEB7AC
:1001D0008C017B01198220E030E040E0BE016F5FBE
:1001E0007F4F8CE50E94F8012FEF81EE94E02150C3
:1001F00080409040E1F700C0000083E0809331022E
:100200001092320284E08093330220E030E043E039
:1002100061E372E08CE50E94F801AFEFE3EDF0E3FB
:10022000A150E040F040E1F700C000002FEF83ED67
:1002300090E3215080409040E1F700C0000044ED81
:1002400050E068E08CE50E942102EFE7FEE3319781
:10025000F1F700C0000080913102833009F066C0E0
:1002600080913202843009F061C0E1E3F2E067E39B
:1002700072E08FEF9FEF6E177F07A1F02191822729
:1002800028E030E0AC015695479580FF06C0CA01D2
:10029000A1E08A27A0EA9A2701C0CA0121503109AA
:1002A00089F7E9CF209137023091380228173907B2
:1002B00009F03FC0609135026F7770E0762F6627B6
:1002C00080913602682B80E090E00E94460820E092
:1002D00030E040E251E40E94D407F801608371836A
:1002E0008283938320913502DC01CB0127FDB05836
:1002F000F80180839183A283B3836091330270916C
:10030000340276276727762780E090E00E9446082F
:1003100020E030E040E251E40E94D407F70160831E
:1003200071838283938380E090E005C089E090E050
:1003300002C08AE090E00F90DF91CF911F910F9162
:10034000FF90EF90089588E48093B8001092B90070
:1003500010923002789484E08093BC0008958091DC
:1003600030028111FCCF8DE092E0089585EA809300
:10037000BC00089584E98093BC00089585EC8093C7
:10038000BC00089585E88093BC0008958093BB006D
:100390000895ACE0B2E09196EC91919781E08E0FD8
:1003A00091968C938091BB00F0E0E45FFD4F8083D9
:1003B000089520912D0230E080912C0290E0019769
:1003C0002817390714F485EC01C085E88093BC0038
:1003D000089580910C02869510923002E0912E02D1
:1003E000F0912F02309719F06DE072E009940895B2
:1003F000EF92FF920F931F93CF93DF93D82F8B0130
:10040000C42F79010E94AF0181E080933002ECE0BB
:10041000F2E0DD0FD0838C0F80A311A2F3A2E2A241
:100420004C2F50E0B8018DE092E00E94B70985EAB8
:100430008093BC00DF91CF911F910F91FF90EF90BF
:1004400008950F931F93CF93DF93C82FD62F8A0160
:100450000E94AF0181E080933002ECE0F2E0CC0F2B
:10046000C160C083DF5FD0A311A213A302A385EAFA
:100470008093BC00DF91CF911F910F9108951F923F
:100480000F920FB60F9211242F933F934F935F93C8
:100490006F937F938F939F93AF93BF93EF93FF934C
:1004A0008091B900887F883279F038F4803161F02A
:1004B000883151F0883019F507C08035C9F088358A
:1004C000E1F08034E1F416C0E0912D0280912C021D
:1004D000E817A8F481E08E0F80932D02F0E0E45F2E
:1004E000FD4F80818093BB0085E88093BC000CC0E9
:1004F0000E94C9010E94D90107C00E94C90184E974
:100500008093BC000E94E901FF91EF91BF91AF91F0
:100510009F918F917F916F915F914F913F912F911B
:100520000F900FBE0F901F9018959B01AC0160E8D3
:1005300074E88EE190E00E947B07DA01C90101971F
:10054000A109B109AC01BD0176956795579547950D
:10055000E0910001F0910101852F99278583448363
:1005600086E0828388E181830895E0910001F09123
:100570000101908195FFFDCF86830895E0910001F0
:10058000F0910101808187FFFDCF86810895CF938F
:10059000DF93EC018991882319F00E94B502FACF0C
:1005A0008DE00E94B5028AE0DF91CF910C94B502F4
:1005B000CF93DF93CDB7DEB7C855D1090FB6F89406
:1005C000DEBF0FBECDBF82E091E00E94C7022FEFD9
:1005D00037E883E1215030408040E1F700C000005F
:1005E00085E091E00E94C7029FEF27E833E1915038
:1005F00020403040E1F700C000008CE091E00E9414
:10060000C7028FEF97E823E1815090402040E1F747
:1006100000C0000088E191E00E94C7023FEF87E838
:1006200093E1315080409040E1F700C0000083E347
:1006300091E00E94C7022FEF37E883E1215030405C
:100640008040E1F700C000008FE391E00E94C70204
:100650009FEF27E833E1915020403040E1F700C0A0
:1006600000008FEAE82E81E0F82E8E010F5F1F4F09
:1006700081E591E00E94C7028FEF93EC29E0815061
:1006800090402040E1F700C0000081E691E00E9428
:10069000C7023FEF83EC99E0315080409040E1F792
:1006A00000C000008BE791E00E94C7022FEF33ECFF
:1006B00089E0215030408040E1F700C000008BE825
:1006C00091E00E94C7029FEF23EC39E09150204057
:1006D0003040E1F700C000008FE991E00E94C702BE
:1006E0008FEF93EC29E0815090402040E1F700C06B
:1006F0000000BE016F5A7F4FCE018B5A9F4F0E9460
:10070000DF0065968FAD65978F9364968FAD649784
:100710008F9363968FAD63978F9362968FAD629739
:100720008F9369968FAD69978F9368968FAD689711
:100730008F9367968FAD67978F9366968FAD669709
:100740008F93FF92EF921F930F930E94070AC801A5
:100750000E94C7023FEF83EC99E031508040904007
:10076000E1F700C000008FED91E00E94C7022FEF7B
:1007700033EC89E0215030408040E1F700C00000B8
:100780008FEE91E00E94C7029FEF23EC39E0915079
:1007900020403040E1F700C000008EEF91E00E9461
:1007A000C7028FEF93EC29E0815090402040E1F7A1
:1007B00000C000003AEA86EE96E921E03150804020
:1007C00090402040D9F700000FB6F894DEBF0FBE6E
:1007D000CDBF4ECFA0E1B0E0E0EFF3E00C949D0779
:1007E0007C011B016A01FC0117821682838181FF53
:1007F00044C39E012F5F3F4F3901F7019381F101FF
:1008000093FD859193FF81911F01882309F431C3E2
:10081000853239F493FD859193FF81911F018532D3
:1008200039F4B70190E00E94CB0956016501E5CF8C
:1008300010E0512C912CFFE1F915D8F08B3279F0B2
:1008400038F4803279F08332A1F4F92DF0612EC0B2
:100850008D3261F0803369F4292D21602DC0392D4E
:100860003260932E892D8460982E2AC0E92DE8608D
:1008700015C097FC2DC020ED280F2A3088F496FE75
:1008800006C03AE0139F200D1124122F19C08AE0F0
:10089000589E200D1124522EE92DE0629E2E10C08C
:1008A0008E3231F496FCE5C2F92DF0649F2E08C01B
:1008B0008C3621F4292D2068922E02C0883641F40E
:1008C000F10193FD859193FF81911F018111B3CFB8
:1008D0009BEB980F933020F4992D9061805E07C0B8
:1008E0009BE9980F933008F066C1992D9F7E96FF83
:1008F00016E09F73992E853619F49064992E08C0DE
:10090000863621F4392F3068932E02C01111115010
:1009100097FE07C01C3350F444244394410E27E053
:100920000BC0183038F027E017E005C027E09CE343
:10093000492E02C0212F412C560184E0A80EB11C83
:10094000F6016081718182819381042DA3010E944F
:10095000D4086C01F981FC87F0FF02C0F3FF06C0E8
:1009600091FC06C092FE06C000E205C00DE203C085
:100970000BE201C000E08C858C7019F001115AC2A5
:100980009BC297FE10C04C0CFC85F4FF04C08A810A
:10099000813309F44A94141474F528E0241578F589
:1009A00088E0482E2CC096FC2AC0812F90E08C1540
:1009B0009D059CF03CEFC3163FEFD30674F0892DE4
:1009C0008068982E0AC0E2E0F0E0EC0FFD1FE10F16
:1009D000F11D8081803319F411501111F4CF97FE6D
:1009E0000EC044244394410E812F90E0C816D906CE
:1009F0002CF41C1904C04424439401C010E097FE59
:100A000006C01C141D0434F4C601019605C085E01F
:100A100090E002C081E090E001110196112331F0D5
:100A2000212F30E02F5F3F4F820F931F252D30E0A5
:100A30008217930714F4581A01C0512C892D89701C
:100A400049F4552039F0B70180E290E00E94CB09CB
:100A50005A94F7CF002329F0B701802F90E00E942D
:100A6000CB0993FC09C0552039F0B70180E390E031
:100A70000E94CB095A94F7CF97FE4CC04601D7FE8F
:100A800002C0812C912CC60188199909F301E80F45
:100A9000F91FFE87ED87960124193109388B2F87BE
:100AA000012F10E01195019511093FEF8316930670
:100AB00029F4B7018EE290E00E94CB09C814D90452
:100AC0004CF08F8598898815990524F4ED85FE856D
:100AD000818101C080E3F1E08F1A91082D853E8568
:100AE0002F5F3F4F3E872D87801691062CF0B70170
:100AF00090E00E94CB09D9CFC814D90441F49A815F
:100B0000963320F4953319F43C8534FF81E3B70123
:100B100090E04EC08A81813319F09C859F7E9C872E
:100B2000B70190E00E94CB09111105C094FC18C0D8
:100B300085E690E017C0B7018EE290E00E94CB09F5
:100B40001E5F82E001E0080FF301E80FF11D8081D4
:100B5000B70190E00E94CB09802F0113F3CFE6CFBD
:100B600085E490E0B7010E94CB09D7FC06C0C11410
:100B7000D10441F4EC85E4FF05C0D194C194D108BF
:100B80008DE201C08BE2B70190E00E94CB0980E3C7
:100B90002AE0C216D1042CF08F5FFAE0CF1AD108F8
:100BA000F7CFB70190E00E94CB09B701C601C0960C
:100BB0000E94CB0954C1833631F0833779F08335F5
:100BC00009F056C020C0560132E0A30EB11CF60158
:100BD0008081898301E010E0630112C05601F2E0D8
:100BE000AF0EB11CF601C080D18096FE03C0612F0C
:100BF00070E002C06FEF7FEFC6010E94C0098C0158
:100C0000F92DFF7714C0560122E0A20EB11CF601A7
:100C1000C080D18096FE03C0612F70E002C06FEFEC
:100C20007FEFC6010E94AC098C01F92DF0689F2E60
:100C3000F3FD1AC0852D90E008171907A8F4B70135
:100C400080E290E00E94CB095A94F4CFF60197FC21
:100C5000859197FE81916F01B70190E00E94CB09C9
:100C600051105A94015011090115110579F7F7C077
:100C7000843611F0893661F5560197FE09C024E0EB
:100C8000A20EB11CF60160817181828193810AC03C
:100C9000F2E0AF0EB11CF60160817181072E000CED
:100CA000880B990BF92DFF769F2E97FF09C0909521
:100CB0008095709561957F4F8F4F9F4FF0689F2E65
:100CC0002AE030E0A3010E94290AC82EC6183FC0BE
:100CD000092D853721F40F7E2AE030E01DC0097F01
:100CE0008F3691F018F4883559F0C3C0803719F069
:100CF000883711F0BEC0006104FF09C0046007C05E
:100D000094FE08C0066006C028E030E005C020E17F
:100D100030E002C020E132E0560107FF09C084E064
:100D2000A80EB11CF601608171818281938108C097
:100D3000F2E0AF0EB11CF6016081718180E090E0BD
:100D4000A3010E94290AC82EC6180F77902E96FE7E
:100D50000BC0092D0E7FC11650F494FE0AC092FC00
:100D600008C0092D0E7E05C0DC2C092D03C0DC2C2B
:100D700001C0D12E04FF0DC0FE01EC0DF11D8081DC
:100D8000803311F4097E09C002FF06C0D394D394C6
:100D900004C0802F867809F0D39403FD11C000FFB2
:100DA00006C01C2DD51480F4150D1D190DC0D514C9
:100DB00058F4B70180E290E00E94CB09D394F7CFBA
:100DC000D51410F45D1801C0512C04FF10C0B701F8
:100DD00080E390E00E94CB0902FF17C001FD03C031
:100DE00088E790E002C088E590E0B7010CC0802F52
:100DF000867859F001FF02C08BE201C080E207FD56
:100E00008DE2B70190E00E94CB09C11638F4B7011A
:100E100080E390E00E94CB091150F7CFCA94F30110
:100E2000EC0DF11D8081B70190E00E94CB09C1104B
:100E3000F5CF15C0F4E0F51560F584E0581A93FE7F
:100E40001FC0011127C02C8523FF2AC008E610E02F
:100E5000392D3071932EF8018491811124C05520D1
:100E600009F4E4CCB70180E290E00E94CB095A94E7
:100E7000F6CFF7018681978126C08FEF9FEF23C0C1
:100E8000B70180E290E00E94CB095A945110F8CF4C
:100E9000D8CF512CB701802F90E00E94CB09D3CF3F
:100EA0000CE610E0D5CF91108052B70190E00E947F
:100EB000CB090F5F1F4FCFCF23E0251510F483E040
:100EC000BDCF512CC0CF6096E2E10C94B90760E031
:100ED00072EC81E090E00E9495020E94A301789458
:100EE0002FEF87EA91E6215080409040E1F700C063
:100EF00000000E94D802A1E21A2EAA1BBB1BFD0112
:100F00000DC0AA1FBB1FEE1FFF1FA217B307E407E8
:100F1000F50720F0A21BB30BE40BF50B661F771F40
:100F2000881F991F1A9469F7609570958095909520
:100F30009B01AC01BD01CF0108952F923F924F92CA
:100F40005F926F927F928F929F92AF92BF92CF9259
:100F5000DF92EF92FF920F931F93CF93DF93CDB762
:100F6000DEB7CA1BDB0B0FB6F894DEBF0FBECDBFDA
:100F700009942A88398848885F846E847D848C84AB
:100F80009B84AA84B984C884DF80EE80FD800C81B4
:100F90001B81AA81B981CE0FD11D0FB6F894DEBF97
:100FA0000FBECDBFED0108950E94E8070C949A088A
:100FB0000E94930858F00E948C0840F029F45F3F8B
:100FC00029F00C94830851110C94CE080C948908D4
:100FD0000E94AB0868F39923B1F3552391F3951B55
:100FE000550BBB27AA2762177307840738F09F5F4A
:100FF0005F4F220F331F441FAA1FA9F335D00E2EB7
:101000003AF0E0E832D091505040E695001CCAF723
:101010002BD0FE2F29D0660F771F881FBB1F2617E6
:1010200037074807AB07B0E809F0BB0B802DBF01BD
:10103000FF2793585F4F3AF09E3F510578F00C948C
:1010400083080C94CE085F3FE4F3983ED4F3869572
:1010500077956795B795F7959F5FC9F7880F911DAD
:101060009695879597F90895E1E0660F771F881F99
:10107000BB1F621773078407BA0720F0621B730B4C
:10108000840BBA0BEE1F88F7E0950895E89409C029
:1010900097FB3EF490958095709561957F4F8F4FAB
:1010A0009F4F9923A9F0F92F96E9BB279395F695C1
:1010B000879577956795B795F111F8CFFAF4BB0F3F
:1010C00011F460FF1BC06F5F7F4F8F4F9F4F16C0A3
:1010D000882311F096E911C0772321F09EE8872F2D
:1010E000762F05C0662371F096E8862F70E060E0E9
:1010F0002AF09A95660F771F881FDAF7880F969562
:10110000879597F9089597F99F6780E870E060E008
:1011100008959FEF80EC089500240A941616170690
:1011200018060906089500240A94121613061406D8
:1011300005060895092E0394000C11F4882352F03B
:10114000BB0F40F4BF2B11F460FF04C06F5F7F4FF3
:101150008F4F9F4F089557FD9058440F551F59F0DA
:101160005F3F71F04795880F97FB991F61F09F3F94
:1011700079F087950895121613061406551FF2CFBD
:101180004695F1DF08C0161617061806991FF1CF0D
:1011900086957105610508940895E894BB27662734
:1011A0007727CB0197F90895283008F027E03327F7
:1011B000DA01990F311D87FD916000966105710577
:1011C00039F432602E5F3D9330E32A95E1F70895BC
:1011D0009F3F30F080387105610509F03C5F3C5F4E
:1011E0003D93913008F08068911DDF93CF931F935A
:1011F0000F93FF92EF92192F987F9695E92F96956E
:101200009695E90FFF27E653FF4F99273327EE24E2
:10121000FF24A701E70105900894079428F4360FEE
:10122000E71EF81E491F511D660F771F881F991F63
:101230000694A1F70590079428F4E70EF81E491FBD
:10124000561FC11D770F881F991F661F0694A1F7AF
:101250000590079428F4F80E491F561FC71FD11D8B
:10126000880F991F661F771F0694A1F705900794B2
:1012700020F4490F561FC71FD81F990F661F771FED
:10128000881F0694A9F784911095177041F0D695A0
:10129000C79557954795F794E7941A95C1F7E0E7F6
:1012A000F0E06894159015913591659195910590B0
:1012B0007FE27395E118F10A430B560BC90BD00975
:1012C000C0F7E10CF11E431F561FC91FD01D7EF44D
:1012D000703311F48A95E6CFE894015030F0080F8E
:1012E0000AF40027021708F4202F2395022F7A33DF
:1012F00028F079E37D932A95E9F710C07D932A952C
:1013000089F6069497956795379517951794E11880
:10131000F10A430B560BC90BD00998F023957E9127
:1013200073957A3308F070E37C932013B8F77E91BD
:1013300070617D9330F0839571E37D9370E32A951E
:10134000E1F71124EF90FF900F911F91CF91DF9162
:10135000992787FD90950895FC0105906150704094
:101360000110D8F7809590958E0F9F1F0895FB016F
:10137000DC0102C001900D9241505040D8F7089511
:10138000FC016150704001900110D8F78095909554
:101390008E0F9F1F08950F931F93CF93DF93FB0131
:1013A000238121FD03C08FEF9FEF2CC022FF16C0C9
:1013B00046815781248135814217530744F4A08127
:1013C000B1819D012F5F3F4F318320838C93268114
:1013D00037812F5F3F4F3783268314C08B01EC0189
:1013E000FB010084F185E02D0995892BE1F6D801F8
:1013F00016968D919C911797019617969C938E93B4
:101400001697CE01DF91CF911F910F910895AEE015
:10141000B0E0EDE0FAE00C94AB070D891E8986E0A0
:101420008C831A8309838FEF9FE79E838D83AE01A0
:10143000475E5F4F6F89788DCE0101960E94EA0367
:10144000EF81F885E00FF11F10822E96E4E00C94F6
:10145000C707FA01AA27283051F1203181F1E89419
:101460006F936E7F6E5F7F4F8F4F9F4FAF4FB1E097
:101470003ED0B4E03CD0670F781F891F9A1FA11D92
:10148000680F791F8A1F911DA11D6A0F711D811D93
:10149000911DA11D20D009F468943F912AE0269F58
:1014A00011243019305D3193DEF6CF010895462FB7
:1014B0004770405D4193B3E00FD0C9F7F6CF462F98
:1014C0004F70405D4A3318F0495D31FD4052419301
:1014D00002D0A9F7EACFB4E0A695979587957795BE
:1014E0006795BA95C9F700976105710508959B0145
:1014F000AC010A2E06945795479537952795BA95CE
:10150000C9F7620F731F841F951FA01D0895F894DB
:02151000FFCF0B
:10151200C00041540041542B5253540041542B43B8
:10152200574D4F44453D330041542B43575341508F
:101532003D22494E43554241444F5241222C2C31C7
:101542002C300041542B4349504D55583D310041F8
:10155200542B4349505345525645523D312C383055
:101562000041542B43495053454E443D302C3235B3
:10157200003C68746D6C3E3C686561643E3C2F685B
:101582006561643E3C626F64793E0041542B43497D
:101592005053454E443D302C3139003C68313E4970
:1015A2006E63756261646F72613C2F68313E004107
:1015B200542B43495053454E443D302C3435003C66
:1015C20068323E74656D70657261747572613A203D
:1015D20025322E3166202020202068756D656461D9
:1015E200643A2025322E3166203C2F68323E00417B
:1015F200542B43495053454E443D302C3134003C2A
:101602002F626F64793E3C2F68746D6C3E004154CA
:0C1612002B434950434C4F53453D3000E2
:00000001FF
