:100000000C9434000C9446000C9446000C9446006A
:100010000C9446000C9446000C9446000C94460048
:100020000C9446000C9446000C9446000C94460038
:100030000C9446000C9446000C9458000C94460016
:100040000C9446000C9446000C9446000C94460018
:100050000C9446000C9446000C9446000C94460008
:100060000C9446000C94460011241FBECFEFD8E03C
:10007000DEBFCDBF21E0A0E0B1E001C01D92A23003
:10008000B207E1F70E947E000C9482000C940000FD
:10009000F89485B5836085BD84B5826084BD89EFA1
:1000A00087BDEEE6F0E080818260808378940895D9
:1000B0001F920F920FB60F9211242F938F939F933D
:1000C000F8948091000190910101019690930101B3
:1000D00080930001883E934041F495B180E28927E6
:1000E00085B9109201011092000178949F918F912F
:1000F0002F910F900FBE0F901F901895259A0E9478
:080100004800FFCFF894FFCF87
:00000001FF
