:100000000C94B4020C94D1020C94D1020C94D10241
:100010000C94D1020C94D1020C94D1020C94D10214
:100020000C94D1020C94D1020C94D1020C94D10204
:100030000C94D1020C94D1020C94D1020C94D102F4
:100040000C94D1020C94D1020C94D1020C94D102E4
:100050000C94D1020C94D1020C94D1020C94D102D4
:100060000C946F030C94D10200000000003E5B4F23
:100070005B3E3E6B4F6B3E1C3E7C3E1C183C7E3C08
:10008000181C577D571C1C5E7F5E1C00183C180016
:10009000FFE7C3E7FF0018241800FFE7DBE7FF30A6
:1000A000483A060E2629792926407F050507407F14
:1000B00005253F5A3CE73C5A7F3E1C1C08081C1C87
:1000C0003E7F14227F22145F5F005F5F06097F017D
:1000D0007F006689956A606060606094A2FFA29468
:1000E00008047E040810207E201008082A1C080836
:1000F0001C2A08081E101010100C1E0C1E0C303884
:100100003E3830060E3E0E06000000000000005F84
:1001100000000007000700147F147F14242A7F2AA0
:100120001223130864623649562050000807030062
:10013000001C2241000041221C002A1C7F1C2A08AE
:10014000083E080800807030000808080808000011
:1001500060600020100804023E5149453E00427F85
:10016000400072494949462141494D331814127FD4
:100170001027454545393C4A494931412111090774
:100180003649494936464949291E000014000000F5
:1001900040340000000814224114141414140041C7
:1001A00022140802015909063E415D594E7C121184
:1001B000127C7F494949363E414141227F414141BC
:1001C0003E7F494949417F090909013E4141517337
:1001D0007F0808087F00417F41002040413F017FA8
:1001E000081422417F404040407F021C027F7F0470
:1001F00008107F3E4141413E7F090909063E4151B9
:10020000215E7F09192946264949493203017F01A8
:10021000033F4040403F1F2040201F3F4038403FA9
:10022000631408146303047804036159494D4300BF
:100230007F4141410204081020004141417F0402F6
:10024000010204404040404000030708002054548D
:1002500078407F284444383844444428384444286B
:100260007F385454541800087E090218A4A49C78BE
:100270007F0804047800447D40002040403D007F1A
:100280001028440000417F40007C047804787C08FA
:100290000404783844444438FC18242418182424CE
:1002A00018FC7C08040408485454542404043F44B3
:1002B000243C4040207C1C2040201C3C4030403CE2
:1002C00044281028444C9090907C4464544C440042
:1002D00008364100000077000000413608000201A6
:1002E0000204023C2623263C1EA1A161123A404092
:1002F000207A38545455592155557941225454780F
:1003000042215554784020545579400C1E527212A7
:100310003955555559395454545939555454580030
:1003200000457C410002457D420001457C407D1234
:1003300011127DF0282528F07C5455450020545496
:100340007C547C0A097F4932494949323A44444441
:100350003A324A4848303A4141217A3A424020787C
:10036000009DA0A07D3D4242423D3D4040403D3C7D
:1003700024FF2424487E4943662B2FFC2F2BFF09A2
:1003800029F620C0887E0903205454794100004496
:100390007D413048484A32384040227A007A0A0A81
:1003A000727D0D19317D2629292F282629292926F4
:1003B00030484D4020380808080808080808382F39
:1003C00010C8ACBA2F102834FA00007B00000814C3
:1003D0002A142222142A14085500550055AA55AA99
:1003E00055AAFF55FF55FF000000FF00101010FF39
:1003F00000141414FF001010FF00FF1010F010F094
:10040000141414FC001414F700FF0000FF00FF1484
:1004100014F404FC141417101F10101F101F1414D0
:10042000141F00101010F0000000001F101010101A
:100430001F10101010F010000000FF10101010100E
:1004400010101010FF10000000FF140000FF00FF4C
:1004500000001F10170000FC04F4141417101714E8
:1004600014F404F40000FF00F7141414141414140A
:10047000F700F7141414171410101F101F1414147D
:10048000F4141010F010F000001F101F0000001FE7
:1004900014000000FC140000F010F01010FF10FF1A
:1004A000141414FF141010101F00000000F010FFAF
:1004B000FFFFFFFFF0F0F0F0F0FFFFFF0000000093
:1004C00000FFFF0F0F0F0F0F3844443844FC4A4A17
:1004D0004A347E02020606027E027E0263554941CC
:1004E000633844443C04407E201E2006027E020203
:1004F00099A5E7A5991C2A492A1C4C7201724C3017
:100500004A4D4D303048784830BC625A463D3E49ED
:100510004949007E0101017E2A2A2A2A2A44445F91
:10052000444440514A444040444A51400000FF0185
:1005300003E080FF000008086B6B08361236243693
:10054000060F090F060000181800000010100030F8
:1005500040FF0101001F01011E00191D1712003C80
:100560003C3C3C000000000011241FBECFEFD8E04F
:10057000DEBFCDBF11E0A0E0B1E0E4EEF4E102C0E7
:1005800005900D92A833B107D9F725E0A8E3B1E0B3
:1005900001C01D92AE35B207E1F70E946A050C94C6
:1005A000700A0C94000088E48093B8001092B9009F
:1005B00010925C01789484E08093BC00089580914F
:1005C0005C018111FCCF89E391E0089585EA809375
:1005D000BC00089584E98093BC00089585EC809365
:1005E000BC00089585E88093BC0008958093BB000B
:1005F0000895A8E3B1E09196EC91919781E08E0F78
:1006000091968C938091BB00F0E0E85CFE4F808374
:1006100008952091590130E08091580190E00197B0
:100620002817390714F485EC01C085E88093BC00D5
:10063000089580913801869510925C01E0915A01ED
:10064000F0915B01309719F069E371E00994089526
:10065000EF92FF920F931F93CF93DF93D82F8B01CD
:10066000C42F79010E94DF0281E080935C01E8E3FE
:10067000F1E0DD0FD0838C0F80A311A2F3A2E2A2E0
:100680004C2F50E0B80189E391E00E94760785EA9B
:100690008093BC00DF91CF911F910F91FF90EF905D
:1006A00008950F931F93CF93DF93C82FD62F8A01FE
:1006B0000E94DF0281E080935C01E8E3F1E0CC0F6F
:1006C000C160C083DF5FD0A311A213A302A385EA98
:1006D0008093BC00DF91CF911F910F9108951F92DD
:1006E0000F920FB60F9211242F933F934F935F9366
:1006F0006F937F938F939F93AF93BF93EF93FF93EA
:100700008091B900887F883279F038F4803161F0C7
:10071000883151F0883019F507C08035C9F0883527
:10072000E1F08034E1F416C0E09159018091580164
:10073000E817A8F481E08E0F80935901F0E0E85C9F
:10074000FE4F80818093BB0085E88093BC000CC085
:100750000E94F9020E94090307C00E94F90284E97D
:100760008093BC000E941903FF91EF91BF91AF915C
:100770009F918F917F916F915F914F913F912F91B9
:100780000F900FBE0F901F901895CF93DF9300D05E
:10079000CDB7DEB790E899838A8320E030E042E06D
:1007A000BE016F5F7F4F80915D050E9428030F900F
:1007B0000F90DF91CF910895CF93DF9300D0CDB705
:1007C000DEB790E499838A8320E030E042E0BE0106
:1007D0006F5F7F4F80915D050E9428030F900F90FF
:1007E000DF91CF910895CF93DF9381E20E94C503FB
:1007F00080E00E94C5038FE70E94C50382E20E9449
:10080000C50380E00E94C50387E00E94C503CDE5D3
:10081000D1E089910E94DC0385E0CD35D807C9F786
:10082000DF91CF9108950F931F93CF93DF938C01A6
:10083000EB0181E20E94C503802F0E94C503802F37
:100840000E94C50382E20E94C5038C2F0E94C5034B
:100850008C2F0E94C503D695DC2FCC27D795C79542
:10086000C35ADE4FC00FD11F8881DF91CF911F91F6
:100870000F910C94DC034423C9F0413079F5962F95
:10088000969596959695E82FF0E080E8989FE00D74
:10089000F11D1124E35AFE4F677081E090E001C022
:1008A000880F6A95EAF79081892B17C0962F969545
:1008B00096959695E82FF0E080E8989FE00DF11D61
:1008C0001124E35AFE4F677081E090E001C0880F69
:1008D0006A95EAF7809590818923808308957F92B5
:1008E0008F929F92AF92BF92CF92DF92EF92FF9240
:1008F0000F931F93CF93DF93E62E25E0429F600175
:100900001124F82E00E010E088E0782E760E88247E
:100910008394912CF801EC0DFD1DE859FF4FC49113
:10092000DE2DAF2CB12CC0FF06C041E06D2F8F2D06
:100930000E943B0419C08D2F869586958695F501FA
:1009400030E8839FE00DF11D1124E35AFE4F8D2FF7
:100950008770940102C0220F331F8A95E2F7C90104
:100960008095908189238083C595DF5FD711DBCF88
:100970000F5F1F4FF3940530110561F6DF91CF91A2
:100980001F910F91FF90EF90DF90CF90BF90AF90AD
:100990009F908F907F9008958CE380935D058EEA01
:1009A0000E94C50385ED0E94C50380E80E94C5032F
:1009B00088EA0E94C5038FE30E94C50383ED0E946D
:1009C000C50380E00E94C50380E40E94C5038DE852
:1009D0000E94C50384E10E94C50380E20E94C50312
:1009E00080E00E94C50381EA0E94C50388EC0E9452
:1009F000C5038AED0E94C50382E10E94C50381E818
:100A00000E94C5038FEC0E94C50389ED0E94C503B7
:100A100081EF0E94C5038BED0E94C50380E40E9414
:100A2000C50384EA0E94C50386EA0E94C5038EE2DC
:100A30000E94C5038FEA0C94C50380E094E0EDE5C5
:100A4000F1E0DF019C011D9221503040E1F7089553
:100A5000FF920F931F93CF93DF93F62E8A01D82F27
:100A6000C0E0F80141918F01442341F021E06F2D56
:100A70008C2F8D0F0E946F04CA5FF3CFDF91CF914F
:100A80001F910F91FF900895529A4C9A08958AE011
:100A90008A95F1F700C05A9A85E38A95F1F700002C
:100AA0005A9860E070E0CB0120E04C9B06C06F5F7D
:100AB0007F4F8F4F9F4F21E0F8CF2223A9F30E9451
:100AC0007B0627EE3AE34DE05CE30E94E1060E94DC
:100AD0004C060895CF93DF93CDB7DEB76E970FB670
:100AE000F894DEBF0FBECDBF0E9444050E94D30222
:100AF0000E94CC0478940E941D0541E062E081E0F0
:100B00000E943B0440E051E068E285E00E94280535
:100B10000E94F3032FEF47EA81E6215040408040D6
:100B2000E1F700C000001F921F921F921F9281E107
:100B300091E09F938F938E010F5F1F4F1F930F9331
:100B40000E9486071E8EA80165E085E00E942805A8
:100B50000E94F3039FEF23ED40E39150204040407B
:100B6000E1F700C000000FB6F894DEBF0FBECDBFA6
:100B700091E1892E91E0992E8FE19EE40197F1F7A2
:100B800000C000000E9447056B017C012B013C0165
:100B900084E0A82EB12C8FE19EE40197F1F700C00C
:100BA00000000E9447059B01241935092D394FEF9C
:100BB000340774F0243631055CF4C60ED71EE81EE7
:100BC000F91E21E0A21AB1082B013C0121F703C054
:100BD000C12CD12C7601C701B60125E030E040E000
:100BE00050E00E942A0669017A0147E8C41641E0F4
:100BF000D406E104F10430F063E271E0C8010E9420
:100C00007F070FC0FF92EF92DF92CF929F928F9259
:100C10001F930F930E9486070FB6F894DEBF0FBE96
:100C2000CDBF1E8E0E941D05A80165E085E00E94D3
:100C300028050E94F303CD28CE28CF2809F49CCFA5
:100C40009FEF23E244EF915020404040E1F700C085
:100C5000000092CFA1E21A2EAA1BBB1BFD010DC002
:100C6000AA1FBB1FEE1FFF1FA217B307E407F5075C
:100C700020F0A21BB30BE40BF50B661F771F881F38
:100C8000991F1A9469F760957095809590959B01CE
:100C9000AC01BD01CF0108950E94C00688F09F57A6
:100CA00098F0B92F9927B751B0F0E1F0660F771F90
:100CB000881F991F1AF0BA95C9F714C0B13091F086
:100CC0000E94DA06B1E008950C94DA06672F782FB7
:100CD0008827B85F39F0B93FCCF38695779567954B
:100CE000B395D9F73EF490958095709561957F4FB7
:100CF0008F4F9F4F0895E89409C097FB3EF490955D
:100D00008095709561957F4F8F4F9F4F9923A9F0E4
:100D1000F92F96E9BB279395F69587957795679573
:100D2000B795F111F8CFFAF4BB0F11F460FF1BC0B7
:100D30006F5F7F4F8F4F9F4F16C0882311F096E94A
:100D400011C0772321F09EE8872F762F05C06623F8
:100D500071F096E8862F70E060E02AF09A95660FB1
:100D6000771F881FDAF7880F9695879597F908956A
:100D700057FD9058440F551F59F05F3F71F047954C
:100D8000880F97FB991F61F09F3F79F08795089531
:100D9000121613061406551FF2CF4695F1DF08C050
:100DA000161617061806991FF1CF8695710561056D
:100DB00008940895E894BB2766277727CB0197F915
:100DC00008950E94F4060C9465070E94570738F0B6
:100DD0000E945E0720F0952311F00C944E070C94AE
:100DE000540711240C94DB060E94B80670F3959FFB
:100DF000C1F3950F50E0551F629FF001729FBB2712
:100E0000F00DB11D639FAA27F00DB11DAA1F649FAD
:100E10006627B00DA11D661F829F2227B00DA11D60
:100E2000621F739FB00DA11D621F839FA00D611DE6
:100E3000221F749F3327A00D611D231F849F600D07
:100E4000211D822F762F6A2F11249F5750409AF030
:100E5000F1F088234AF0EE0FFF1FBB1F661F771FBC
:100E6000881F91505040A9F79E3F510580F00C9487
:100E70004E070C94DB065F3FE4F3983ED4F386956F
:100E800077956795B795F795E7959F5FC1F7FE2B27
:100E9000880F911D9695879597F9089597F99F6703
:100EA00080E870E060E008959FEF80EC08950024F2
:100EB0000A941616170618060906089500240A94BF
:100EC00012161306140605060895092E0394000C45
:100ED00011F4882352F0BB0F40F4BF2B11F460FFD4
:100EE00004C06F5F7F4F8F4F9F4F0895FB01DC0160
:100EF00002C001900D9241505040D8F70895FB0177
:100F0000DC0101900D920020E1F70895AEE0B0E021
:100F1000ECE8F7E00C94470A0D891E8986E08C8383
:100F20001A8309838FEF9FE79E838D83AE01475E0F
:100F30005F4F6F89788DCE0101960E94A807EF81DF
:100F4000F885E00FF11F10822E96E4E00C94630AFE
:100F5000ABE0B0E0EEEAF7E00C94390A6C017B01FB
:100F60008A01FC0117821682838181FFCCC1CE01E8
:100F700001963C01F6019381F70193FD859193FF62
:100F800081917F01882309F4BAC1853239F493FD38
:100F9000859193FF81917F01853229F4B60190E01C
:100FA0000E949F09E7CF912C212C312CFFE1F315F2
:100FB000D8F08B3279F038F4803279F08332A1F4B2
:100FC000232D20611DC08D3261F0803369F4232D03
:100FD000216016C0832D8260382EE32DE4603E2E02
:100FE0002AC0F32DF8601DC037FC2DC020ED280F5E
:100FF0002A3040F08E32B9F436FC81C1232D2064B2
:10100000322E19C036FE06C08AE0989E200D1124AB
:10101000922E11C0EAE02E9E200D1124222EF32DD7
:10102000F0623F2E08C08C3621F4832D8068382E64
:1010300002C0883641F4F70193FD859193FF8191B9
:101040007F018111B3CF982F9F7D9554933028F461
:101050000C5F1F4F9FE399830DC0833631F08337B8
:1010600071F0833509F059C021C0F801808189836E
:101070000E5F1F4F88248394912C530113C02801C5
:10108000F2E04F0E511CF801A080B18036FE03C083
:10109000692D70E002C06FEF7FEFC5010E949409D7
:1010A0004C018201F32DFF773F2E16C0280122E06C
:1010B000420E511CF801A080B18036FE03C0692D9C
:1010C00070E002C06FEF7FEFC5010E9489094C01FB
:1010D000F32DF0683F2E820133FC1BC0822D90E07F
:1010E00088169906B0F4B60180E290E00E949F094C
:1010F0002A94F4CFF50137FC859137FE81915F0189
:10110000B60190E00E949F0921102A9421E0821AE2
:1011100091088114910471F7E8C0843611F0893682
:1011200041F5F80137FE07C06081718182819381AA
:101130000C5F1F4F08C060817181072E000C880B67
:10114000990B0E5F1F4FF32DFF763F2E97FF09C0BF
:1011500090958095709561957F4F8F4F9F4FF06868
:101160003F2E2AE030E0A3010E94DB09882E86187A
:1011700045C0853731F4232D2F7EB22E2AE030E092
:1011800025C0932D997FB92E8F36C1F018F488357C
:1011900079F0B5C0803719F0883721F0B0C0E92F59
:1011A000E061BE2EB4FE0DC0FB2DF460BF2E09C061
:1011B00034FE0AC0292F2660B22E06C028E030E097
:1011C00005C020E130E002C020E132E0F801B7FEC6
:1011D00007C060817181828193810C5F1F4F06C0BF
:1011E0006081718180E090E00E5F1F4FA3010E943B
:1011F000DB09882E8618FB2DFF773F2E36FE0DC0AB
:10120000232D2E7FA22E891458F434FE0BC032FCFD
:1012100009C0832D8E7EA82E05C0B82CA32C03C038
:10122000B82C01C0B92CA4FE0FC0FE01E80DF11DC1
:101230008081803321F49A2D997EA92E09C0A2FEC7
:1012400006C0B394B39404C08A2D867809F0B39491
:10125000A3FC11C0A0FE06C0B21488F4280C922C86
:101260009B180EC0B21460F4B60180E290E00E94B8
:101270009F09B394F7CFB21418F42B1802C0982C1E
:10128000212CA4FE10C0B60180E390E00E949F09CB
:10129000A2FE17C0A1FC03C088E790E002C088E569
:1012A00090E0B6010CC08A2D867859F0A1FE02C0EC
:1012B0008BE201C080E2A7FC8DE2B60190E00E94C3
:1012C0009F09891438F4B60180E390E00E949F09D9
:1012D0009A94F7CF8A94F301E80DF11D8081B6014D
:1012E00090E00E949F098110F5CF222009F442CEA0
:1012F000B60180E290E00E949F092A94F6CFF601A1
:101300008681978102C08FEF9FEF2B96E2E10C94CC
:10131000550AFC010590615070400110D8F7809586
:1013200090958E0F9F1F0895FC01615070400190B1
:101330000110D8F7809590958E0F9F1F08950F93F9
:101340001F93CF93DF93FB01238121FD03C08FEF18
:101350009FEF2CC022FF16C0468157812481358122
:101360004217530744F4A081B1819D012F5F3F4F85
:10137000318320838C93268137812F5F3F4F3783C2
:10138000268314C08B01EC01FB010084F185E02D64
:101390000995892BE1F6D80116968D919C911797A6
:1013A000019617969C938E931697CE01DF91CF915D
:1013B0001F910F910895FA01AA27283051F1203189
:1013C00081F1E8946F936E7F6E5F7F4F8F4F9F4FD9
:1013D000AF4FB1E03ED0B4E03CD0670F781F891F1B
:1013E0009A1FA11D680F791F8A1F911DA11D6A0FE9
:1013F000711D811D911DA11D20D009F468943F919C
:101400002AE0269F11243019305D3193DEF6CF019A
:101410000895462F4770405D4193B3E00FD0C9F760
:10142000F6CF462F4F70405D4A3318F0495D31FDCD
:101430004052419302D0A9F7EACFB4E0A695979520
:10144000879577956795BA95C9F7009761057105F6
:1014500008959B01AC010A2E069457954795379540
:101460002795BA95C9F7620F731F841F951FA01D9A
:1014700008952F923F924F925F926F927F928F9238
:101480009F92AF92BF92CF92DF92EF92FF920F9313
:101490001F93CF93DF93CDB7DEB7CA1BDB0B0FB61D
:1014A000F894DEBF0FBECDBF09942A8839884888DA
:1014B0005F846E847D848C849B84AA84B984C88470
:1014C000DF80EE80FD800C811B81AA81B981CE0F67
:1014D000D11D0FB6F894DEBF0FBECDBFED0108954C
:0414E000F894FFCFAE
:1014E4004573706572616D6F732032207365672E6A
:1014F4000064697374616E6369613A2025752063C1
:101504006D200064697374616E6369613A206E6171
:081514006461206368650000BA
:00000001FF
