:10000000D3C10000EFC10000EDC10000EBC1000052
:10001000E9C10000E7C10000E5C10000E3C1000044
:10002000E1C10000DFC10000DDC10000DBC1000054
:10003000D9C10000D7C1000024C60000D3C1000010
:10004000D1C10000CFC10000CDC10000CBC1000074
:10005000C9C10000C7C10000C5C10000C3C1000084
:100060000C94301ABFC100000C94D4010C94F2011E
:100070000C94F2010C94F2010C94F2010C94F20134
:100080000C94F2010C94F2010C94F2010C94F20124
:100090000C94F2010C94F2010C94F2010C94F20114
:1000A0000C9441060C94F2010C94F2010C94F201B0
:1000B0000C94F2010C94F2010C94F2010C94F201F4
:1000C0000C94F2010C94F2010C94301A0C94F2018D
:1000D0005314671471147D14A814871493149E1478
:1000E0006E616E00696E660000407A10F35A00A0DF
:1000F000724E18090010A5D4E80000E876481700F1
:1001000000E40B54020000CA9A3B000000E1F50530
:10011000000080969800000040420F000000A0867A
:1001200001000000102700000000E80300000000AC
:100130006400000000000A00000000000100000050
:1001400000002C76D888DC674F0823DFC1DFAE596A
:10015000E1B1B796E5E3E453C63AE651997696E8FD
:10016000E6C28426EB898C9B62ED407C6FFCEFBC81
:100170009C9F40F2BAA56FA5F490055A2AF75C93AC
:100180006B6CF9676DC11BFCE0E40D47FEF520E6E2
:10019000B500D0ED902E0300943577050080841EC5
:1001A000080000204E0A000000C80C333333330F20
:1001B000986E12831141EF8D2114893BE65516CFBD
:1001C000FEE6DB18D1844B381BF77C1D901DA4BBC9
:1001D000E424203284725E228100C9F124ECA1E57E
:1001E0003D270000000000000000434F4E534F4CDD
:1001F000450000002C173A0C3A0C03187318380C01
:10020000AE14A117401400381A1735010000000081
:100210000000004E554C4C4445560000003A0C3A44
:100220000C3A0C3A0C3A0C380C3A0C3A0C380C00DC
:1002300000380C0002000000000000004E414D4557
:1002400053504143450064121B14380C380C380CD1
:10025000380C380C380C380C0000380C006E616D0E
:10026000696E6974202864657669636573293A0D3F
:100270000A004552524F522047455453544B2025B3
:10028000730A006E616D6573706163653A20646521
:1002900076696365206E616D6520257320746F6FCC
:1002A000206C6F6E670D0A006E616D65737061631F
:1002B000653A2063616E6E6F74206D6F756E742089
:1002C00025640D0A000A0A416C6C20757365722062
:1002D00070726F6365737365732068617665206300
:1002E0006F6D706C657465642E0A0A000A57656C40
:1002F000636F6D6520746F2058696E75210A0A0D51
:100300000958696E75204F5320436F707972696781
:1003100068742028632920323031322C2032303169
:10032000350A0D09446F75676C617320452E2043B3
:100330006F6D657220616E64204352432050726578
:1003400073732C20496E632E0A0A0D0958696E7565
:10035000204F5320666F72204156522061746D65A4
:100360006761333238702076302E3120286329209F
:10037000323032300A0D0952616661656C2049677E
:100380006E6163696F205A7572697461203C726195
:1003900066614066692E756E636F6D612E6564756A
:1003A0002E61723E0A0A0D0011241FBECFEFD8E065
:1003B000DEBFCDBF11E0A0E0B1E0E6E6FBE302C0A6
:1003C00005900D92A436B107D9F724E0A4E6B1E078
:1003D00001C01D92AA37B207E1F70C94700A0E947F
:1003E0005E198FC60DCEFF93EF93FC0100820FB60E
:1003F000F89404A21182228233824482558266825A
:10040000778280869186A286B386C486D586E68664
:10041000F786008B118B228B338B448B558B668B2D
:10042000778B808F918FA28FB38FC48FD58F0F90D2
:10043000068E0F90078E0DB600A20EB601A2FB012C
:1004400000A00DBE01A00EBE078C0F92068C0F926D
:10045000D58DC48DB38DA28D918D808D7789668960
:10046000558944893389228911890089F784E68472
:10047000D584C484B384A284918480847780668088
:100480005580448033802280118004A00FBE0080FC
:10049000EF91FF910895A0E1B0E0E1E5F2E00C9466
:1004A000C61A7C011B016A01FC0117821682838136
:1004B00081FF44C39E012F5F3F4F3901F7019381B4
:1004C000F10193FD859193FF81911F01882309F428
:1004D00031C3853239F493FD859193FF81911F01DA
:1004E000853239F4B70190E00E94F91C560165018C
:1004F000E5CF10E0512C912CFFE1F915D8F08B32AB
:1005000079F038F4803279F08332A1F4F92DF0617A
:100510002EC08D3261F0803369F4292D21602DC009
:10052000392D3260932E892D8460982E2AC0E92DB2
:10053000E86015C097FC2DC020ED280F2A3088F404
:1005400096FE06C03AE0139F200D1124122F19C009
:100550008AE0589E200D1124522EE92DE0629E2E35
:1005600010C08E3231F496FCE5C2F92DF0649F2E56
:1005700008C08C3621F4292D2068922E02C08836BE
:1005800041F4F10193FD859193FF81911F01811148
:10059000B3CF9BEB980F933020F4992D9061805E40
:1005A00007C09BE9980F933008F066C1992D9F7E94
:1005B00096FF16E09F73992E853619F49064992E54
:1005C00008C0863621F4392F3068932E02C01111ED
:1005D000115097FE07C01C3350F444244394410E3D
:1005E00027E00BC0183038F027E017E005C027E0FF
:1005F0009CE3492E02C0212F412C560184E0A80E15
:10060000B11CF6016081718182819381042DA30167
:100610000E94F31B6C01F981FC87F0FF02C0F3FF1D
:1006200006C091FC06C092FE06C000E205C00DE2C5
:1006300003C00BE201C000E08C858C7019F0011141
:100640005AC29BC297FE10C04C0CFC85F4FF04C03C
:100650008A81813309F44A94141474F528E024152E
:1006600078F588E0482E2CC096FC2AC0812F90E0B7
:100670008C159D059CF03CEFC3163FEFD30674F03C
:10068000892D8068982E0AC0E2E0F0E0EC0FFD1F93
:10069000E10FF11D8081803319F411501111F4CF55
:1006A00097FE0EC044244394410E812F90E0C8165B
:1006B000D9062CF41C1904C04424439401C010E052
:1006C00097FE06C01C141D0434F4C601019605C033
:1006D00085E090E002C081E090E0011101961123D5
:1006E00031F0212F30E02F5F3F4F820F931F252DD8
:1006F00030E08217930714F4581A01C0512C892D49
:10070000897049F4552039F0B70180E290E00E94E9
:10071000F91C5A94F7CF002329F0B701802F90E0FD
:100720000E94F91C93FC09C0552039F0B70180E301
:1007300090E00E94F91C5A94F7CF97FE4CC04601F6
:10074000D7FE02C0812C912CC60188199909F301AA
:10075000E80FF91FFE87ED87960124193109388BC0
:100760002F87012F10E01195019511093FEF831696
:10077000930629F4B7018EE290E00E94F91CC81498
:10078000D9044CF08F8598898815990524F4ED8556
:10079000FE85818101C080E3F1E08F1A91082D85EB
:1007A0003E852F5F3F4F3E872D87801691062CF0A8
:1007B000B70190E00E94F91CD9CFC814D90441F4C4
:1007C0009A81963320F4953319F43C8534FF81E304
:1007D000B70190E04EC08A81813319F09C859F7EDD
:1007E0009C87B70190E00E94F91C111105C094FC90
:1007F00018C085E690E017C0B7018EE290E00E9435
:10080000F91C1E5F82E001E0080FF301E80FF11D03
:100810008081B70190E00E94F91C802F0113F3CF73
:10082000E6CF85E490E0B7010E94F91CD7FC06C032
:10083000C114D10441F4EC85E4FF05C0D194C19406
:10084000D1088DE201C08BE2B70190E00E94F91C53
:1008500080E32AE0C216D1042CF08F5FFAE0CF1AB1
:10086000D108F7CFB70190E00E94F91CB701C6018B
:10087000C0960E94F91C54C1833631F0833779F059
:10088000833509F056C020C0560132E0A30EB11CDA
:10089000F6018081898301E010E0630112C05601F6
:1008A000F2E0AF0EB11CF601C080D18096FE03C00D
:1008B000612F70E002C06FEF7FEFC6010E94EE1C57
:1008C0008C01F92DFF7714C0560122E0A20EB11C55
:1008D000F601C080D18096FE03C0612F70E002C097
:1008E0006FEF7FEFC6010E94DA1C8C01F92DF068D2
:1008F0009F2EF3FD1AC0852D90E008171907A8F464
:10090000B70180E290E00E94F91C5A94F4CFF601FE
:1009100097FC859197FE81916F01B70190E00E944D
:10092000F91C51105A94015011090115110579F75C
:10093000F7C0843611F0893661F5560197FE09C07B
:1009400024E0A20EB11CF601608171818281938145
:100950000AC0F2E0AF0EB11CF60160817181072E72
:10096000000C880B990BF92DFF769F2E97FF09C07D
:1009700090958095709561957F4F8F4F9F4FF06850
:100980009F2E2AE030E0A3010E94551DC82EC618F4
:100990003FC0092D853721F40F7E2AE030E01DC0CD
:1009A000097F8F3691F018F4883559F0C3C080372D
:1009B00019F0883711F0BEC0006104FF09C004605F
:1009C00007C094FE08C0066006C028E030E005C0FD
:1009D00020E130E002C020E132E0560107FF09C00B
:1009E00084E0A80EB11CF60160817181828193813F
:1009F00008C0F2E0AF0EB11CF6016081718180E0A9
:100A000090E0A3010E94551DC82EC6180F77902EA6
:100A100096FE0BC0092D0E7FC11650F494FE0AC03D
:100A200092FC08C0092D0E7E05C0DC2C092D03C0E8
:100A3000DC2C01C0D12E04FF0DC0FE01EC0DF11D18
:100A40008081803311F4097E09C002FF06C0D3946F
:100A5000D39404C0802F867809F0D39403FD11C08D
:100A600000FF06C01C2DD51480F4150D1D190DC0F6
:100A7000D51458F4B70180E290E00E94F91CD39499
:100A8000F7CFD51410F45D1801C0512C04FF10C02D
:100A9000B70180E390E00E94F91C02FF17C001FD3E
:100AA00003C088E790E002C088E590E0B7010CC081
:100AB000802F867859F001FF02C08BE201C080E2EE
:100AC00007FD8DE2B70190E00E94F91CC11638F4D1
:100AD000B70180E390E00E94F91C1150F7CFCA944F
:100AE000F301EC0DF11D8081B70190E00E94F91C2B
:100AF000C110F5CF15C0F4E0F51560F584E0581A83
:100B000093FE1FC0011127C02C8523FF2AC000EED1
:100B100010E0392D3071932EF8018491811124C099
:100B2000552009F4E4CCB70180E290E00E94F91C62
:100B30005A94F6CFF7018681978126C08FEF9FEFF9
:100B400023C0B70180E290E00E94F91C5A94511032
:100B5000F8CFD8CF512CB701802F90E00E94F91C1C
:100B6000D3CF04EE10E0D5CF91108052B70190E0C2
:100B70000E94F91C0F5F1F4FCFCF23E0251510F403
:100B800083E0BDCF512CC0CF6096E2E10C94E21A15
:100B90009B01AC0160E874E88EE190E00E94821A4B
:100BA000DA01C9010197A109B109AC01BD0176952E
:100BB000679557954795E0910001F0910101852FC8
:100BC00099278583448386E0828388E18183089521
:100BD000E0910001F0910101908195FFFDCF8683A6
:100BE0000895CF93DF93EC018991882311F0F0DF12
:100BF000FBCF8DE0EDDF8AE0EBDFDF91CF91089551
:100C0000A4E0B0E0E6E0F6E00C94D41A19821A826F
:100C10001B821C8219821A821B821C8209811A8102
:100C20002B813C81061717072807390770F400004D
:100C300009811A812B813C810F5F1F4F2F4F3F4F3E
:100C400009831A832B833C83E9CF2496E4E00C9438
:100C5000F01A80E284B92D9A60E47DE083E090E0B0
:100C6000CFDF2D9860E47DE083E090E0C9CF109263
:100C7000B7011092B8011092B9011092BA0181E047
:100C800008951F920F920FB60F9211242F933F9346
:100C90004F935F936F937F938F939F93AF93BF9384
:100CA000EF93FF938091C1019091C201A091C30184
:100CB000B091C4010196A11DB11D8093C101909313
:100CC000C201A093C301B093C401883E9340A10523
:100CD000B105D8F08091C5019091C601A091C701DE
:100CE000B091C8010196A11DB11D8093C5019093DB
:100CF000C601A093C701B093C8011092C101109220
:100D0000C2011092C3011092C4018091BB01909165
:100D1000BC0126E0289FF001299FF00D1124ED5918
:100D2000FC4F828193818430910584F4289FF001E7
:100D3000299FF00D1124ED59FC4F8081918101977D
:100D400091838083892B11F40E9476118091BD01DB
:100D50009091BE01A091BF01B091C0010197A1097E
:100D6000B10949F08093BD019093BE01A093BF01EA
:100D7000B093C0010DC081E090E0A0E0B0E08093AE
:100D8000BD019093BE01A093BF01B093C00191D764
:100D9000FF91EF91BF91AF919F918F917F916F9153
:100DA0005F914F913F912F910F900FBE0F901F9029
:100DB000189571D69093BC018093BB0181E090E0BF
:100DC000A0E0B0E08093BD019093BE01A093BF016D
:100DD000B093C0011092C5011092C6011092C701D4
:100DE0001092C8011092C1011092C2011092C30169
:100DF0001092C40185B5836085BD84B5826084BDD1
:100E000089EF87BDEEE6F0E08081826080830895FF
:100E1000CF92DF92EF92FF92CF93DF936B017C0131
:100E20001FD5D82F83E0C816D104E104F10420F0C7
:100E30008D2F19D5CFEF11C029E22C9DC0012D9D1A
:100E4000900D11248E519E4FFC0176960590F491E1
:100E5000E02D0995C82F8D2F06D58C2FDF91CF91CE
:100E6000FF90EF90DF90CF900895A6E0B0E0EBE325
:100E7000F7E00C94C61A2B8D29838C8CED8CFE8C9C
:100E800009A13AA13E83ECD4982E40E4E416F10483
:100E90001CF470E4E72EF12C83E0E80EF11C9CEFCB
:100EA000E92227010F2C000C66087708C301B20164
:100EB00069D21C01019679F482E792E00E94AF1199
:100EC000892DD1D4FFEFFA832FEF2B833FEF3C83A3
:100ED0004FEF4D8309C130916401209165018091EC
:100EE000660190916701A12CB12C1BE5632F722F35
:100EF00024E030E040E050E00E94A41A6B017C0145
:100F00006A83DB82EC82FD82169FF001179FF00D51
:100F10001124E353FE4F80819181B701A6014F5FF9
:100F20005F4F6F4F7F4F892B79F44093640150934B
:100F3000650160936601709367018FEFC816D8064C
:100F4000E806F806A1F4B8CF342F252FCB01EFEF38
:100F5000AE1ABE0AF4E0AF16B10441F64093640144
:100F6000509365016093660190936701A5CF2F8D23
:100F700038A1121613060CF09FCF8091390390917F
:100F80003A03A0913B03B0913C030196A11DB11D12
:100F90008093390390933A03A0933B03B0933C03AF
:100FA00085E090E0918380833383228331AE20AE4D
:100FB00042AE53AE64AE75AEDF01AB5BBF4F1C9269
:100FC000A02FBE818F0180E090E02D91F801E80F05
:100FD000F91F26AF222321F0019687309105A9F74A
:100FE0002BE52C9DC0012D9D900D1124FC01E35398
:100FF000FE4F5F01EA5BFF4F8FEF9FEF918380838E
:10100000B8D1F501E85BFF4F6083718382839383DE
:101010003896108231961182108232961182108297
:101020003296118210828AEAF10180838BA19CA101
:10103000F50193A782A720E030E0F801E20FF31F4B
:1010400014822F5F3F4F26323105B9F72BE52C9DD7
:10105000F0012D9DF00D1124E353FE4F298124ABA7
:1010600085AA26A387A220E820A7DE01959620E086
:1010700030E02817390764F44D915D91F901EE0FC6
:10108000FF1FE00FF11F55A744A72F5F3F4FF1CF80
:10109000FC017696EE0FFF1F4BE54C9D90014D9D98
:1010A000300D1124E20FF31FE353FE4F1182108223
:1010B000F901E353FE4F848F958F27503E4F228FC7
:1010C000338F8BE291E1D10111978C9311979C930F
:1010D000119739813C9311978C9245E0241A31087D
:1010E00024A235A2892DBFD36A817B818C819D8109
:1010F0002696E2E10C94E21A61E070E080E090E074
:10110000089537D1B9C3A0E0B0E0E9E8F8E00C9465
:10111000CC1AEC016A017B01A3D3C114D104E10410
:10112000F10409F447C020915F0330916003C217B6
:10113000D30708F43FC020916103309162032C175C
:101140003D07C0F197E0C90ED11CE11CF11C98EFDE
:10115000C922A601DD0C660B770BE0915903F091D3
:101160005A03A9E5B3E0309741F0EC17FD0740F5CD
:10117000DF010190F081E02DF6CF93E0A935B907AA
:10118000D1F11296CD90DD90ED90FC9015978D01E8
:101190000B2E000C220B330B0C0D1D1D2E1D3F1DA5
:1011A0006E010D2E000CEE08FF08C016D106E206F7
:1011B000F30618F458D38FEF82C0309741F41EC065
:1011C00093E0A935B907E9F600E010E098016E0157
:1011D0000D2E000CEE08FF08C40ED51EE61EF71EED
:1011E0004F010F2E000CAA08BB088C149D04AE04FE
:1011F000BF0420F4DFCF00E010E09801C0905B0353
:10120000D0905C03E0905D03F0905E03C40ED51EA9
:10121000E61EF71EC0925B03D0925C03E0925D0372
:10122000F0925E036E010D2E000CEE08FF08C01652
:10123000D106E206F30691F412960D911D912D91BF
:101240003C911597400F511F621F731F12964D93CB
:101250005D936D937C931597ED0108C0F983E88346
:101260004A835B836C837D83CD93DC934A815B816E
:101270006C817D818E010D2E000C220B330B040F2F
:10128000151F261F371F6F010F2E000CEE08FF08D9
:101290000C151D052E053F0581F402811381248163
:1012A0003581400F511F621F731F4A835B836C831C
:1012B0007D832081318139832883D5D281E0CDB7E8
:1012C000DEB7ECE00C94E81A26E0AC01249FC001E4
:1012D000259F900D1124FC01ED59FC4F4281538153
:1012E000443051051CF5BA01052E000C880B990BF2
:1012F000249FF001259FF00D1124ED59FC4FA28190
:10130000B38144815581249FF001259FF00D112464
:10131000ED59FC4FB383A2832A9FF0012B9FF00D60
:101320001124ED59FC4F5583448308956FEF7FEFEF
:10133000CB01089546E0469FF001479FF00D112430
:10134000ED59FC4FA281B38124813581429FF00188
:10135000439FF00D1124ED59FC4FB383A2834A9FA4
:10136000F0014B9FF00D1124ED59FC4F3583248380
:1013700008956091C9017091CA018091CB0190914B
:10138000CC010895A0E0B0E0E8ECF9E00C94D01AAC
:101390006B017C0165D2C114D104E104F10449F16F
:1013A00097E0C90ED11CE11CF11C98EFC9220D2C4D
:1013B000000CEE08FF08E0915903F0915A03A0E0F9
:1013C000B0E0C0E0D0E029E533E0309781F0428121
:1013D0005381648175814C155D056E057F0510F0A4
:1013E000D901EF019F010190F081E02DEECF209710
:1013F00021F439D28FEF9FEF41C00A811B812C81EC
:101400003D81C016D106E206F30629F42881398110
:101410002D933C9311C00C191D092E093F090A8315
:101420001B832C833D83AE01DD0F660B770B040F0E
:10143000151F261F371FE80140915B0350915C0385
:1014400060915D0370915E034C195D096E097F091F
:1014500040935B0350935C0360935D0370935E0362
:1014600002D2D701C6010497A109B109AE01DD0F6F
:10147000660B770B840F951FA61FB71FCDB7DEB77E
:10148000E8E00C94EC1ACF92DF92EF92FF92CF93A8
:10149000DF936B017C01E4D1D82F83E0C816D1041F
:1014A000E104F10420F08D2FDED1CFEF11C029E24D
:1014B0002C9DC0012D9D900D11248E519E4FFC013D
:1014C00072960590F491E02D0995C82F8D2FCBD100
:1014D0008C2FDF91CF91FF90EF90DF90CF90089508
:1014E00045D384E091E09F938F9395D28CEE92E068
:1014F00036D79AD21092390310923A0310923B03D6
:1015000010923C031092C5031092C6031092C703B9
:101510001092C803EDECF1E00F900F901182108251
:1015200016AE11AE10AE13821282E55AFF4F83E061
:10153000E933F80799F7CDE3D3E009E513E0188222
:1015400019821A821B821C82A6D29E838D832796C3
:101550000C171D07A1F78BDB9ED29093C4038093D9
:10156000C30360E070E0CB018EDF61E070E080E0FB
:1015700090E089DF62E070E080E090E084DF19DCD9
:10158000E0915903F0915A0380E090E0DC0130973C
:1015900061F04281538164817581840F951FA61F7C
:1015A000B71F0190F081E02DF2CFBF93AF939F93CF
:1015B0008F9382E191E09F938F932DD21F921F9280
:1015C0001F921F9288E291E09F938F931F928AE06F
:1015D0008F931F9280E48F931F921F9246DC2BE51E
:1015E000269FF001279FF00D1124E353FE4F81E069
:1015F00090E09183808339D11F921F921F921F9296
:101600008EE291E09F938F931F9284E18F9383E00A
:101610008F9388EE8F938EE599E19F938F9325DCCE
:1016200019D48DB79EB74E960FB6F8949EBF0FBED5
:101630008DBFFFCF1F93CF93DF93FA0134973B9772
:1016400008F054C0643071058105910508F04EC062
:101650003BE5369FF001379FF00D1124E353FE4F19
:101660000190F081E02DEF2B09F440C036E0349F6B
:10167000F001359FF00D1124ED59FC4F428153814B
:10168000022E000C330BC6E016E0C49FF001C59F8C
:10169000F00D1124ED59FC4FA081B181A217B307C1
:1016A00018F042815381F0CFC481D581169FD001BB
:1016B000179FB00D1124AD59BC4F13965C934E93F8
:1016C00012971596DC93CE9314972D933C931C9F01
:1016D000D0011D9FB00D1124AD59BC4F13967C93C2
:1016E0006E9312977583648381E001C08FEFDF9161
:1016F000CF911F9108954F925F926F927F928F9238
:101700009F92AF92BF92CF92DF92EF92FF92CF93D0
:10171000DF9300D000D0CDB7DEB76B017C01CA01EA
:1017200004970B9708F088C084E0C816D104E10440
:10173000F10408F081C08BE58C9DF0018D9DF00DCA
:101740001124E353FE4F80819181892B09F474C0E9
:101750004A01052E000CAA08BB0886E0849FF00110
:10176000859FF00D1124ED59FC4F82819381092E44
:10177000000CAA0BBB0B4F5F5F4F2A01550F660889
:10178000770849825A826B827C8266E049805A805F
:101790006B807C8084159505A605B70569F566E024
:1017A0006C9DF0016D9DF00D1124ED59FC4F53829D
:1017B00042829582848231832083689DA001699D45
:1017C000500D1124FA01ED59FC4FD382C282649D61
:1017D000F001659DF00D1124ED59FC4FD582C482B6
:1017E00084159505A605B70529F180819181821B95
:1017F000930B918380831EC0689FF001699FF00D59
:101800001124ED59FC4F408151812417350758F0C0
:10181000241B350B428153814C015D01CA01550FD8
:10182000AA0BBB0BB3CF2C013D0189819A81AB81FF
:10183000BC81B5CF81E001C08FEF0F900F900F906A
:101840000F90DF91CF91FF90EF90DF90CF90BF90FE
:10185000AF909F908F907F906F905F904F90089582
:101860008FB7F89408958FBF089578940895FFCFA7
:101870008FEF089581E00895AF92BF92CF92DF92EB
:10188000EF92FF921F93CF93DF936B017C01E8DF10
:10189000182F84E0C816D104E104F10488F48BE524
:1018A0008C9DF0018D9DF00D1124E353FE4F80813E
:1018B0009181892B29F0C114D104E104F10421F4B0
:1018C000812FD1DF8FEF9DC08091390390913A0332
:1018D000A0913B03B0913C030197A109B10980930A
:1018E000390390933A03A0933B03B0933C030297D0
:1018F000A105B1050CF426D58BE58C9D50018D9D7D
:10190000B00C1124F501EB5EFD4F60817181828185
:101910009381A70196013AD3C0E0D0E0FE01EA0D21
:10192000FB1DE25EFD4F60817181072E000C880B6C
:10193000990B6EDA2296C630D10581F78BE58C9D26
:10194000E0018D9DD00D1124C353DE4F4AAD5BAD38
:101950006CAD7DAD495F5F4F6F4F7F4F487F052E68
:10196000000C660B770B88AD99AD092E000CAA0B05
:10197000BB0B0496A11DB11D841B950BA60BB70BC9
:10198000C2DB888199818430910581F030F4813007
:10199000910549F0029729F127C08630910551F051
:1019A000079721F021C01982188283D1C701B6019F
:1019B00004D41AC0CA5BDF4F8881998127E0289F31
:1019C000F001299FF00D1124E35CFC4F818192818D
:1019D000A381B4810196A11DB11D81839283A3834C
:1019E000B483C701B601A6DC8BE58C9DF0018D9D0B
:1019F000F00D1124E353FE4F11821082812F33DF4B
:101A000081E0DF91CF911F91FF90EF90DF90CF9019
:101A1000BF90AF900895A0E0B0E0E1E1FDE00C944C
:101A2000D61AE2E00C94F21A0F931F93CF93DF9330
:101A30008AE794E0A0E8BB270196A11DB11DEC0147
:101A40009093600380935F032FEF38E0309362033D
:101A500020936103E9E5F3E0918380831982188282
:101A6000092E000CAA0BBB0B4FEF58E060E070E0B2
:101A70008A019B01081B190B2A0B3B0B0A831B8352
:101A80002C833D830283138324833583DF91CF919D
:101A90001F910F910895209102013091030120318F
:101AA000310544F5C9010296909303018093020128
:101AB000A9014F5F5F4F66E0629FF001639FF00DE9
:101AC0001124ED59FC4F538342838FEF9FEF958391
:101AD000848391838083649FF001659FF00D1124BE
:101AE000ED59FC4F938382833583248311821082C6
:101AF000C90108958FEF9FEF08958F929F92AF9243
:101B0000BF92EF92FF920F931F93CF93DF934B01FE
:101B10005C018A017901A4DED82F83E08816910444
:101B2000A104B10420F08D2F9EDECFEF13C029E277
:101B3000289DC001299D900D11248E519E4FFC01BE
:101B400074960590F491E02DA701B8010995C82F6E
:101B50008D2F89DE8C2FDF91CF911F910F91FF90F8
:101B6000EF90BF90AF909F908F900895F89471D8A8
:101B700070D80ED8C1CACF93DF939A01245031098F
:101B80002B303105E8F56430710581059105C0F50C
:101B90002BE5269FF001279FF00D1124E353FE4F04
:101BA00020813181232B61F14F5F5F4F26E0249F1D
:101BB000F001259FF00D1124ED59FC4FC481D58112
:101BC000269FD001279FB00D1124AD59BC4F13960D
:101BD0005C934E9312971596DC93CE9314972C9F9B
:101BE000D0012D9FB00D1124AD59BC4F13967C939D
:101BF0006E93129775836483462F372F282F04C066
:101C00004FEF3FEF2FEF9FEF642F732F822FDF9166
:101C1000CF910895CF939C01245031092B30310589
:101C2000F8F4C6E0C89FF001C99FF00D1124ED59EA
:101C3000FC4F228133812430310594F445DBC69F6B
:101C4000F001C79FF00D1124ED59FC4F2FEF3FEF2E
:101C50003583248333832283462F372F282F04C0D4
:101C60004FEF3FEF2FEF9FEF642F732F822FCF9116
:101C700008956430710581059105C8F42BE5269F10
:101C8000F001279FF00D1124E353FE4F2081318195
:101C9000232B69F022E030E0318320834091C3039D
:101CA0005091C4032281C6DC04D081E008958FEFF7
:101CB0000895CF92DF92EF92FF928091C5039091A9
:101CC000C603A091C703B091C803181619061A06D7
:101CD0001B0624F481E08093C9036BC0C090C90146
:101CE000D090CA01E090CB01F090CC018BE58C9DA7
:101CF000F0018D9DF00D1124E353FE4F8081918101
:101D0000019729F5228133814091C3035091C40387
:101D100086E0849FD001859FB00D1124AD59BC4F42
:101D200012966D917C911397869FD001879FB00D7D
:101D30001124AD59BC4F8D919C9182179307C8F126
:101D400082E090E091838083C701B60173DC8091CB
:101D5000C3039091C4035EDF6093C9017093CA010D
:101D60008093CB019093CC012BE5269FD001279F38
:101D7000B00D1124FD01E353FE4F41E050E05183CB
:101D8000408341E050E060E070E04093BD0150933B
:101D9000BE016093BF017093C001BD016F527E4FC1
:101DA0002C9DC0012D9D900D11248F529E4F0E949D
:101DB000F301FF90EF90DF90CF90089561307105AF
:101DC0008105910531F06230710581059105F1F0D1
:101DD0003FC08091C5039091C603A091C703B09105
:101DE000C803AC01BD014F5F5F4F6F4F7F4F409302
:101DF000C5035093C6036093C7037093C803892B30
:101E00008A2B8B2B19F51092C90320C08091C50332
:101E10009091C603A091C703B091C8031816190684
:101E20001A061B06ACF40197A109B1098093C503FA
:101E30009093C603A093C703B093C803892B8A2B42
:101E40008B2B21F48091C903811133DF81E0089548
:101E50008FEF0895CF92DF92EF92FF921F93CF936F
:101E6000DF936B017C01FCDC182F84E0C816D104E1
:101E7000E104F10470F48BE58C9DF0018D9DF00D73
:101E80001124E353FE4F80819181009711F0059753
:101E900029F0812FE8DC8FEF9FEF09C0D281C38149
:101EA000C701B601E6DE812FDEDC8D2F9C2FDF918E
:101EB000CF911F91FF90EF90DF90CF900895CF9337
:101EC000DF93EC01CDDCC430D10558F497E09C9F42
:101ED000F0019D9FF00D1124E35CFC4F9081911166
:101EE00003C0C1DC8FEF03C0C181BDDC8C2FDF914B
:101EF000CF910895CF92DF92EF92FF92CF93DF932D
:101F00006B017C01ADDCF7FE04C0ADDCCFEFDFEF91
:101F100035C0C0916801D091690140E050E097E080
:101F20009E012F5F3F4F2430310514F020E030E058
:101F30009C9FF0019D9FF00D1124E35CFC4F60819C
:101F4000611110C0309369012093680191E0908382
:101F5000CF3F9FEFD907C9F2C182D282E382F482D8
:101F600082DC0CC04F5F5F4F4430510511F0E90136
:101F7000D7CF3093690120936801C7CFCE01DF919D
:101F8000CF91FF90EF90DF90CF9008958F929F9226
:101F9000AF92BF92CF92DF92EF92FF92CF934B011D
:101FA0005C0169017A015CDCC82F84E08816910429
:101FB000A104B10490F48BE5889DF001899DF00D9A
:101FC0001124E353FE4F80819181009731F0DF01AE
:101FD000A05BBF4F2C91222321F08C2F44DC8FEF8C
:101FE00016C0E45BFF4FC082D182E282F38221E01F
:101FF0002C938330910529F0079731F4C501B40182
:10200000DCD0C501B40135DE8C2F2DDC81E0CF9111
:10201000FF90EF90DF90CF90BF90AF909F908F9008
:1020200008950F931F93CF938C011ADCC82F0430AF
:10203000110558F487E0809FF001819FF00D112475
:10204000E35CFC4F8081811104C08C2F0CDC8FEF8E
:1020500017C081819281A381B481AC01BD014F5F22
:102060005F4F6F4F7F4F4183528363837483B7FF0A
:1020700004C085819681CEDDFCDD8C2FF4DB81E010
:10208000CF911F910F910895A0E0B0E0EAE4F0E154
:102090000C94CF1A8C016A017B01E2DBB82E04306C
:1020A000110568F4F7FC0BC087E0809FE001819F79
:1020B000D00D1124C35CDC4F8881811104C08B2DAD
:1020C000D2DB8FEF31C061E070E080E090E076DE3F
:1020D0008E010F5F1F4F2596C114D104E104F10456
:1020E000D9F0F80180819181A281B381AC01BD0159
:1020F0004F5F5F4F6F4F7F4F408351836283738386
:10210000B7FF04C08881998185DDB3DDF1E0CF1A86
:10211000D108E108F108E0CF62E070E080E090E0F3
:102120004DDE8B2DA0DB81E0CDB7DEB7E9E00C946E
:10213000EB1ACF92DF92EF92FF92CF93DF9397FD4E
:1021400033C06B017C01672B682B692B11F4FED027
:1021500029C086DBD82F4091BB015091BC01609112
:10216000C9017091CA018091CB019091CC01960177
:10217000C2DAC82F8F3F19F48D2F75DB16C08091FE
:10218000C9019091CA012BE5289FF001299FF00D0C
:102190001124E353FE4F84E090E09183808389DD36
:1021A0008D2F61DBC1E001C0CFEF8C2FDF91CF918C
:1021B000FF90EF90DF90CF900895CF92DF92EF9253
:1021C000FF92CF936B017C014BDBC82F84E0C816D4
:1021D000D104E104F10488F48BE58C9DF0018D9D20
:1021E000F00D1124E353FE4F80819181009729F077
:1021F0008430910531F0079721F08C2F34DB8FEF7D
:1022000024C026E02C9DD0012D9DB00D1124AD5988
:10221000BC4F12968D919C911397843091057CF45C
:10222000289FF001299FF00D1124ED59FC4F2081CA
:1022300031818D919C91820F931F91838083C7017F
:10224000B60178D88C2F0FDB81E0CF91FF90EF9013
:10225000DF90CF9008958DD80FCB1F93CF93DF934E
:10226000EC01FEDA182FC430D10558F487E08C9FBA
:10227000F0018D9FF00D1124E35CFC4F80818111F2
:1022800004C0812FF0DA8FEF2DC081819281A3816C
:10229000B4810197A109B10981839283A383B48397
:1022A000B7FF1DC06091C9017091CA018091CB0137
:1022B0009091CC012BE5269FD001279FB00D1124D2
:1022C000A353BE4F26E030E011963C932E93AA5BB9
:1022D000BF4FCD93DC93458156814DDCEADC812FE5
:1022E000C2DA81E0DF91CF911F910895CF9361E031
:1022F00070E080E090E062DDC6E08091BB019091EB
:10230000BC01C89FF001C99FF00D1124ED59FC4F8D
:10231000228133812430310574F4C29FF001C39FC0
:10232000F00D1124ED59FC4F20813181232B19F43C
:1023300071DC9FDCE2CF62E070E080E090E03EDDA7
:10234000CF91089585EC92E00AD091CACF9388DAB4
:10235000C82FAFDC8C2F87DA81E0CF9108950895E4
:102360000F931F9300E010E098010417150726074C
:10237000370764F4DC01ED91CD010F5F1F4F2F4F44
:102380003F4FE111F2CFB801C90104C06FEF7FEFF9
:102390008FEF9FEF1F910F910895A6E0B0E0E3ED5E
:1023A000F1E10C94C61A182F9C831B0169017A0174
:1023B00057DA082F40E150E060E070E0812F9C8107
:1023C000CFDF4B015C0141E050E060E070E0C10113
:1023D000C7DF2B013C012FEF82169206A206B20640
:1023E00049F16F3F7F4F8F4F9F4F21F153E0C5164B
:1023F000D104E104F104F0F48091CA039091CB037D
:10240000A091CC03B091CD0384309105A105B10515
:102410008CF419831C811A8325E1289FA001299F30
:10242000500D11245E834D8320E030E040E050E009
:10243000BA0104C0802F17DA8FEF42C04815590542
:102440006A057B059CF4E981FA811191FA83E9839D
:10245000ED81FE81E20FF31FE253FC4F10834F5FCB
:102460005F4F6F4F7F4F2F5F3F4FE8CF141415041E
:10247000160417045CF4F101208135E1389FF00166
:10248000399FF00D1124E253FC4F208B25E1289F4A
:10249000F001299FF00D1124E253FC4FC18AD28A2A
:1024A000E38AF48A0196A11DB11D8093CA0390931B
:1024B000CB03A093CC03B093CD03802FD4D981E07C
:1024C0002696E2E10C94E21AA0E2B0E0EAE6F2E13C
:1024D0000C94C81A86E0E9E3F1E0DE015B96019016
:1024E0000D928A95E1F71092CA031092CB031092D5
:1024F000CC031092CD038DE592E031DF82EEE82E21
:1025000081E0F82E88E090E09C01225E3140690174
:1025100093E3892E91E0992EDE015B968E010F5F89
:102520001F4F412C512C320158018D91F80181939C
:10253000882339F03FEF431A530A630A730A8F0165
:10254000F4CFB6016E0D7F1D6E517E4F4AE050E014
:10255000CE0141960E94CB1CFE017196BFEF4B1A33
:102560005B0A6B0A7B0A20E1421651046104710484
:1025700064F481919FEB980F9A3108F4805ED80142
:102580008D938D018111EACF09C030E143165104CA
:102590006104710419F083E892E016C0BF92AF9213
:1025A0009F928F9238DAF701259135914591559197
:1025B00067E271E0C501F1DE0F900F900F900F9070
:1025C0008F3F19F488EA92E0CADEF9E2EF0EF11CBF
:1025D0002DE5E21622E0F20609F09ECF2FEF3FEF45
:1025E000A90167E271E089E391E0D7DE81E0A0967E
:1025F000E0E1EAC74F925F926F927F928F929F9233
:10260000AF92BF92DF92EF92FF920F931F93CF93FF
:10261000DF9300D000D01F92CDB7DEB7E090CA03A1
:10262000F090CB030091CC031091CD03E982FA82A4
:102630000B831C832EEC33E0812C912C5401E98018
:10264000FA800B811C818E149F04A006B106ACF4A5
:102650007C01F901412C512C3201D70141914423D5
:10266000C1F00FEFE01AF00A5C9145130AC01FEFAA
:10267000411A510A610A710AF0CF6FEF7FEFCB0167
:1026800065C00FEF801A900AA00AB00A2B5E3F4F78
:10269000D6CF7D83D62E40E150E060E070E060DE72
:1026A000698385E1889D8001899D100D1124025266
:1026B0001C4F40E150E060E070E0C80151DEA981AC
:1026C0002A2FAA0F330B440B550B24193509460941
:1026D00057092B013C01B1E04B1A51086108710800
:1026E000420E531E641E751EE1E14E165104610434
:1026F00071041CF62B013C01D801ED2DFD8181E018
:10270000481A5108610871081414150416041704B6
:102710001CF48D918193F3CF12161306140615063F
:102720004CF4D7018D917D018193215031094109EC
:102730005109F2CF85E1889DF001899DF00D1124AA
:10274000E253FC4F61897289838994890F900F90BD
:102750000F900F900F90DF91CF911F910F91FF90ED
:10276000EF90DF90BF90AF909F908F907F906F9091
:102770005F904F900895CF92DF92EF92FF92FB010E
:10278000C12CD12C7601C216D306E406F50664F4FA
:102790006191DC016D93CD01662341F0BFEFCB1A4F
:1027A000DB0AEB0AFB0AEFCF8FEF01C081E0FF905D
:1027B000EF90DF90CF900895A0E1B0E0E1EEF3E17B
:1027C000EBC68B0149015A0120E130E040E050E0C6
:1027D000BC01CE010196CFDF8F3FF1F0C12CD12C8F
:1027E00076010DC020E130E040E050E0B801CE01BC
:1027F0000196C1DF8FEFC81AD80AE80AF80A80915B
:10280000CA039091CB03A091CC03B091CD03C8161D
:10281000D906EA06FB0614F08FEF0AC0B801CE0114
:102820000196E8DE681579058A059B05D9F2862FA1
:102830006096ECE0CDC6A0E1B0E0E0E2F4E1B4C621
:10284000FC01CB018A012591359145915591BE013D
:102850006F5F7F4FB1DF682F880F770B880B990B65
:102860006F3F2FEF72078207920731F09801AE0198
:102870004F5F5F4F42D901C08FEF6096E4E0B0C672
:102880000F931F93CF93DF930496FC01859195914D
:10289000A591B591FA013397E830F10508F058C0D9
:1028A000E859FF4F6DC620E5289F8001299F100D34
:1028B0001124E801CE5DDB4F8CA19DA1CEDCEA8125
:1028C000FB8110818CA19DA1ACDB812F42C020E552
:1028D000289FF001299FF00D1124EE5DFB4F82E54A
:1028E00009C020E5289FF001299FF00D1124EE5D1D
:1028F000FB4F83E481AF81E02CC020E5289FF001ED
:10290000299FF00D1124EE5DFB4F8BE4F3CF20E502
:10291000289FF001299FF00D1124EE5DFB4F84A14B
:1029200095A1CDDA16C020E5289FF001299FF00D72
:102930001124EE5DFB4F81E082AF0BC020E5289FA4
:10294000F001299FF00D1124EE5DFB4F12AED3CFA5
:102950008FEFDF91CF911F910F910895A0E0B0E02C
:10296000E3EBF4E11DC60496FC01C590D590E5901B
:10297000F59080E58C9DE0018D9DD00D11248E0198
:102980000E5D1B4FD80194968D919C91959765DCB7
:10299000D801ED91FC9111979F012F5F3F4F119648
:1029A0003C932E938081AE014A5B5B4F2417350721
:1029B00020F0CA5DDB4FCD93DC9390E59C9DF00148
:1029C0009D9DF00D1124EE5DFB4F91AD933461F4AC
:1029D000DF01AE5BBF4F9C91992331F0ED5BFF4F60
:1029E0009081891301C08EEFCDB7DEB7E8E0F4C562
:1029F000CF93C82F8A3011F08D3059F4FB0185AD8B
:102A0000882339F08DE090E00E94E8058AE090E0AC
:102A100015C080EE8C0F8F3570F0FB0184AD8823DC
:102A200051F08EE590E00E94E80580E48C0F082EBE
:102A3000000C990B03C08C2FCC0F990B0E94E8055A
:102A4000CF910895EF92FF921F93CF93DF93EC0104
:102A5000142F8CA19DA133DA082E000C990BAA0B20
:102A6000BB0BB7FF03C080E090E0DC0129AD22354D
:102A7000C1F48097A105B1050CF058C1EA81FB8132
:102A8000CF0101969B838A8310832A813B81CE01EB
:102A900084962817390708F423C180979B838A837B
:102AA0001FC11D3019F43EAD31111AE0FE01E55B86
:102AB000FF4F10822B34F1F48097A105B1050CF083
:102AC000E6C0EA81FB81CF0101969B838A83108354
:102AD0002A813B81CE0184962817390718F0809708
:102AE0009B838A838AAD882309F4FAC0BE01812FB3
:102AF0007FDFF6C0FE01EB5BFF4F80819E012A5B0A
:102B00003F4F7901181320C0319780818823E1F06D
:102B10008A819B81F90120813181821B930B9E0167
:102B20002C5F3F4F8217930708F480969B838A831C
:102B3000F70110821182128213828DE090E00E94D0
:102B4000E8058AE090E0A9C0FE01E05CFF4F8081CB
:102B5000181721F031968081181352C08FAD882349
:102B600009F44EC0F70180819181A281B3811816CA
:102B700019061A061B060CF0D9C00197A109B10964
:102B800080839183A283B3838A819B819C0121509E
:102B90003109AE014C5F5F4F2417350718F03B83B6
:102BA0002A8303C04F969B838A838AAD882309F4C6
:102BB000BDC0EA81FB81808180528F3590F08CAD61
:102BC000882379F088E090E00E94E8058BAD8823A7
:102BD00041F080E290E00E94E80588E090E00E94E9
:102BE000E80588E090E00E94E8058BAD882309F4B1
:102BF0009DC080E290E00E94E80588E090E04DC032
:102C00001A3011F01D3049F58AAD882319F0BE0144
:102C1000812FEEDEEA81FB81CF0101969B838A83BF
:102C200010832A813B81CE0184962817390718F03A
:102C300080979B838A83F7014081518162817381F0
:102C40004F5F5F4F6F4F7F4F8CA19DA11DDAF70142
:102C5000108211821282138269C08CA19DA12FD98A
:102C6000082E000C990BAA0BBB0BB7FF03C080E02A
:102C700090E0DC01F7014081518162817381840F12
:102C8000951FA61FB71F4F97A105B1054CF0C15B5B
:102C9000DF4F8881082E000C990B0E94E80546C082
:102CA000FE01ED5BFF4F90818AAD19131DC0319776
:102CB00090819923C9F0882319F0BE01812F98DEF5
:102CC000F70180819181A281B381892B8A2B8B2B83
:102CD00069F5EA81FB81CF0101969B838A8310838A
:102CE0008CA19DA19ED922C0882319F0BE01812FFD
:102CF0007FDEF70180819181A281B3810196A11DC0
:102D0000B11D80839183A283B383EA81FB81CF01CC
:102D100001969B838A8310832A813B81CE0184960E
:102D20002817390718F080979B838A83DF91CF910A
:102D30001F91FF90EF900895CF92DF92EF92FF9254
:102D4000CF93DF93FC01E55BFF4F208121116BC026
:102D5000EC012CA93DA98EA99FA92817390761F07C
:102D60002CA93DA98EA99FA92817390759F4C12C70
:102D7000D12C7601C3941FC08AA99BA9A0D8883002
:102D80007CF351C0EEA1FFA1CF0101969FA38EA3BA
:102D90008081082E000C990B0E94E8052CA93DA902
:102DA000CE01C9962817390718F001979DAB8CAB57
:102DB000C12CD12C76018AA99BA981D828E030E0CA
:102DC000281B310987FD3395CA94CD28CE28CF28FA
:102DD00001F512161306ECF4EEA1FFA1CF01019646
:102DE0009FA38EA38081082E000C990B0E94E805FA
:102DF0002EA13FA1CE01C2962817390718F00897D7
:102E00009FA38EA341E050E060E070E08AA99BA9F7
:102E10003BD92CA93DA98EA99FA92817390719F4D8
:102E20008AA99BA94CD8DF91CF91FF90EF90DF90BA
:102E3000CF900895E6EEF1E06591759150E5569FCB
:102E4000C001579F900D11248E5D9B4F60E070E094
:102E5000232B09F071CFF6CD0F931F93CF93DF9300
:102E60000496FC0185919591A591B59120E5289F47
:102E70008001299F100D1124C8018A5D9B4FE80134
:102E8000CE5DDB4F9B838A839983888360E070E00B
:102E9000CB0130D89DA38CA3C801845B9B4F99A71D
:102EA00088A79FA38EA368E070E080E090E022D81E
:102EB0009BAB8AAB065A1B4F1FAB0EAB1DAB0CABCB
:102EC00083E489AF81E08AAF8BAF8CAF8DAF8EAFDB
:102ED0008FAFFE01E05CFF4F98E0908331969FE753
:102EE000908331968083319694E0908331968083ED
:102EF000319695E19083319610821182128213826D
:102F00003496808331961082319693E19083319686
:102F100091E1908331968083C15BDF4F87E08883A6
:102F200081E0DF91CF911F910F910895F89421E0F6
:102F300030E048E561E070E080E090E07BDF78948D
:102F400008958F929F92AF92BF92DF92EF92FF927D
:102F50000F931F93CF93DF93EC01D62EFC01349691
:102F600085909590A590B5908AE068130EC080E595
:102F7000889DF001899DF00D1124E059FB4F80815F
:102F8000882319F06DE0CE01DCDF80E5889D7001BB
:102F9000899DF00C112487010E5D1B4FD801D2963C
:102FA0008D919C91D39759D9D8019896ED91FC9128
:102FB0009997CF01019699969C938E939897D0827A
:102FC000C7018C5A9B4F98962D913C919997281741
:102FD000390738F0C701845B9B4F99969C938E9379
:102FE0009897FE01B49685919591A0DF81E0DF91DD
:102FF000CF911F910F91FF90EF90DF90BF90AF9016
:103000009F908F900895A0E0B0E0E8E0F8E1C4C29E
:103010008C017B0149015A0157FD5CC0FC013496CB
:1030200085919591A591B59120E5289FF001299F63
:10303000F00D1124EE5DFB4F81AD833469F18114F5
:103040009104A104B10471F484A195A10E945F0FC1
:10305000882E880F9908AA08BB0881149104A1043E
:10306000B104D1F1E701C12CD12C7601C814D904E7
:10307000EA04FB044CF4C80171DC89938FEFC81A91
:10308000D80AE80AF80AF2CFD501C401B7FE27C072
:1030900080E090E0DC0123C0C80160DC8E3FF1F0ED
:1030A000E7018993C12CD12C7601C394C814D904AB
:1030B000EA04FB0414F08C2D12C08A30E1F38D3049
:1030C000D1F3C8014BDC89939FEFC91AD90AE90AE9
:1030D000F90AECCF8FEF03C080E001C08EEFCDB7CF
:1030E000DEB7ECE075C2A0E0B0E0E8E7F8E158C276
:1030F0008C0169017A0157FD11C0232B242B252B4C
:1031000011F481E00CC0EB016991C8011ADF81E084
:10311000C81AD108E108F108B9F7F3CF8FEFCDB79E
:10312000DEB7E8E059C2E2E7F4E0DB018D91BD01D2
:103130008193B4E0EA37FB07C1F70895FC018FEFF4
:103140009FEF6150A0F02191822728E030E0AC0190
:103150005695479580FF06C0CA0171E0872770EA3F
:10316000972701C0CA012150310989F7EACF089594
:10317000A1E0B0E0EDEBF8E113C28C017B01198214
:1031800020E030E040E0BE016F5F7F4F8CE527D14B
:1031900064E670E080E090E00E94991083E0809304
:1031A00072041092730484E08093740420E030E091
:1031B00043E062E774E08CE512D168EE73E080E0F2
:1031C00090E00E94991068EE73E080E090E00E9429
:1031D000991043E958E168E08CE525D168E270E098
:1031E00080E090E00E94991092E7C92E94E0D92ED9
:1031F000F60181916F0190E0C0960E94E8058FE38F
:1032000091E00E94F105F5E7CF16F4E0DF0681F7C3
:1032100080917204833009F049C080917304843036
:1032200009F044C066E082E794E088DF20917804EA
:10323000309179048217930709F03BC060917604BE
:103240006F7770E0762F662780917704682B80E097
:1032500090E03BD220E030E040E251E4CED1F801F2
:10326000608371838283938320917604DC01CB0198
:1032700027FDB058F80180839183A283B3836091C6
:1032800074047091750476276727762780E090E0B4
:103290001CD220E030E040E251E4AFD1F70160837E
:1032A00071838283938380E090E005C089E090E0A1
:1032B00002C08AE090E02196E8E08EC1A8E5B0E087
:1032C000E3E6F9E16FC160E072EC81E090E00E941A
:1032D000C80543D0789460ED77E080E090E00E94EC
:1032E000991082E4E82E81E0F82E8E010F5F1F4FC7
:1032F000BE016F5A7F4FCE018B5A9F4F39DF6596C3
:103300008FAD65978F9364968FAD64978F93639617
:103310008FAD63978F9362968FAD62978F93699607
:103320008FAD69978F9368968FAD68978F936796E7
:103330008FAD67978F9366968FAD66978F93FF9249
:10334000EF921F930F9391D3C8010E94F1050FB61E
:10335000F894DEBF0FBECDBFCBCF88E48093B8001A
:103360001092B90010928E01789484E08093BC0092
:10337000089580918E018111FCCF8BE691E0089534
:10338000AAE6B1E09196EC91919781E08E0F91962B
:103390008C938091BB00F0E0E659FE4F8083089546
:1033A00020918B0130E080918A0190E001972817ED
:1033B000390714F485EC01C085E88093BC000895BA
:1033C00080916A01869510928E01E0918C01F091B6
:1033D0008D01309719F06BE671E009950895EF9231
:1033E000FF920F931F93CF93DF93D82F8B01C42F9E
:1033F0007901BFDF81E080938E01EAE6F1E0DD0F25
:10340000D0838C0F80A311A2F3A2E2A24C2F50E034
:10341000B8018BE691E0D9D285EA8093BC00CDB7A4
:10342000DEB7E6E0DBC00F931F93CF93DF93C82F87
:10343000D62F8A019EDF81E080938E01EAE6F1E0DB
:10344000CC0FC160C083DF5FD0A311A213A302A37E
:1034500085EA8093BC00DF91CF911F910F91089571
:103460001F920F920FB60F9211242F933F934F93F9
:103470005F936F937F938F939F93AF93BF93EF93DC
:10348000FF938091B900887F883279F038F48031D9
:1034900061F0883151F0883001F507C08035C9F0FE
:1034A0008835D1F08034C9F415C0E0918B0180914A
:1034B0008A01E81790F481E08E0F80938B01F0E091
:1034C000E659FE4F80818093BB0085E88093BC0065
:1034D00008C056DF65DF05C053DF84E98093BC0078
:1034E0006FDFFF91EF91BF91AF919F918F917F918E
:1034F0006F915F914F913F912F910F900FBE0F9061
:103500001F901895A1E21A2EAA1BBB1BFD010DC02E
:10351000AA1FBB1FEE1FFF1FA217B307E407F50783
:1035200020F0A21BB30BE40BF50B661F771F881F5F
:10353000991F1A9469F760957095809590959B01F5
:10354000AC01BD01CF010895052E97FB16F4009440
:103550000FD057FD05D0D6DF07FC02D046F408C0D7
:1035600050954095309521953F4F4F4F5F4F0895AF
:1035700090958095709561957F4F8F4F9F4F0895DF
:10358000EE0FFF1F0590F491E02D09942F923F92CA
:103590004F925F926F927F928F929F92AF92BF9263
:1035A000CF92DF92EF92FF920F931F93CF93DF930F
:1035B000CDB7DEB7CA1BDB0B0FB6F894DEBF0FBE6C
:1035C000CDBF09942A88398848885F846E847D84B9
:1035D0008C849B84AA84B984C884DF80EE80FD80BB
:1035E0000C811B81AA81B981CE0FD11D0FB6F89431
:1035F000DEBF0FBECDBFED0108950CD0BAC0B2D072
:1036000040F0A9D030F021F45F3F19F09BC0511178
:10361000E4C09EC0BFD098F39923C9F35523B1F3FA
:10362000951B550BBB27AA2762177307840738F031
:103630009F5F5F4F220F331F441FAA1FA9F333D090
:103640000E2E3AF0E0E830D091505040E695001C44
:10365000CAF729D0FE2F27D0660F771F881FBB1F00
:10366000261737074807AB07B0E809F0BB0B802DDA
:10367000BF01FF2793585F4F2AF09E3F510568F026
:1036800061C0ABC05F3FECF3983EDCF38695779565
:103690006795B795F7959F5FC9F7880F911D969528
:1036A000879597F90895E1E0660F771F881FBB1F84
:1036B000621773078407BA0720F0621B730B840B31
:1036C000BA0BEE1F88F7E0950895E89409C097FBC0
:1036D0003EF490958095709561957F4F8F4F9F4FE9
:1036E0009923A9F0F92F96E9BB279395F69587952D
:1036F00077956795B795F111F8CFFAF4BB0F11F4F0
:1037000060FF1BC06F5F7F4F8F4F9F4F16C0882396
:1037100011F096E911C0772321F09EE8872F762FCC
:1037200005C0662371F096E8862F70E060E02AF00D
:103730009A95660F771F881FDAF7880F96958795F9
:1037400097F9089597F99F6780E870E060E0089521
:103750009FEF80EC089500240A94161617061806A9
:103760000906089500240A94121613061406050685
:103770000895092E0394000C11F4882352F0BB0F16
:1037800040F4BF2B11F460FF04C06F5F7F4F8F4F79
:103790009F4F089557FD9058440F551F59F05F3FB4
:1037A00071F04795880F97FB991F61F09F3F79F063
:1037B00087950895121613061406551FF2CF4695E5
:1037C000F1DF08C0161617061806991FF1CF869567
:1037D0007105610508940895E894BB27662777274B
:1037E000CB0197F90895283008F027E03327DA0154
:1037F000990F311D87FD916000966105710539F4BF
:1038000032602E5F3D9330E32A95E1F708959F3FA4
:1038100030F080387105610509F03C5F3C5F3D93F5
:10382000913008F08068911DDF93CF931F930F9321
:10383000FF92EF92192F987F9695E92F969596957E
:10384000E90FFF27EE5BFE4F99273327EE24FF2475
:10385000A701E70105900894079428F4360FE71EA6
:10386000F81E491F511D660F771F881F991F069468
:10387000A1F70590079428F4E70EF81E491F561F7C
:10388000C11D770F881F991F661F0694A1F7059029
:10389000079428F4F80E491F561FC71FD11D880F23
:1038A000991F661F771F0694A1F70590079420F4CF
:1038B000490F561FC71FD81F990F661F771F881FF4
:1038C0000694A9F784911095177041F0D695C79585
:1038D00057954795F794E7941A95C1F7E8EEF0E00D
:1038E00068941590159135916591959105907FE2B9
:1038F0007395E118F10A430B560BC90BD009C0F7B9
:10390000E10CF11E431F561FC91FD01D7EF47033FA
:1039100011F48A95E6CFE894015030F0080F0AF4CC
:103920000027021708F4202F2395022F7A3328F05E
:1039300079E37D932A95E9F710C07D932A9589F65E
:10394000069497956795379517951794E118F10A9E
:10395000430B560BC90BD00998F023957E917395B4
:103960007A3308F070E37C932013B8F77E9170618E
:103970007D9330F0839571E37D9370E32A95E1F7B1
:103980001124EF90FF900F911F91CF91DF91992714
:1039900087FD90950895FB01DC014150504048F0AF
:1039A00005900D920020C9F701C01D924150504072
:1039B000E0F70895FC010590615070400110D8F7C0
:1039C000809590958E0F9F1F0895FB01DC0102C02A
:1039D00001900D9241505040D8F70895FC0161507C
:1039E000704001900110D8F7809590958E0F9F1F21
:1039F00008950F931F93CF93DF93FB01238121FD44
:103A000003C08FEF9FEF2CC022FF16C04681578165
:103A1000248135814217530744F4A081B1819D016F
:103A20002F5F3F4F318320838C93268137812F5F17
:103A30003F4F3783268314C08B01EC01FB010084C8
:103A4000F185E02D0995892BE1F6D80116968D9127
:103A50009C911797019617969C938E931697CE017B
:103A6000DF91CF911F910F910895AEE0B0E0EAE3AE
:103A7000FDE19ACD0D891E8986E08C831A83098326
:103A80008FEF9FE79E838D83AE01475E5F4F6F8907
:103A9000788DCE0101960E944B02EF81F885E00FF0
:103AA000F11F10822E96E4E09BCDFA01AA27283060
:103AB00051F1203181F1E8946F936E7F6E5F7F4FFB
:103AC0008F4F9F4FAF4FB1E03ED0B4E03CD0670F77
:103AD000781F891F9A1FA11D680F791F8A1F911DCA
:103AE000A11D6A0F711D811D911DA11D20D009F41A
:103AF00068943F912AE0269F11243019305D31935C
:103B0000DEF6CF010895462F4770405D4193B3E044
:103B10000FD0C9F7F6CF462F4F70405D4A3318F0EB
:103B2000495D31FD4052419302D0A9F7EACFB4E09C
:103B3000A6959795879577956795BA95C9F7009754
:103B40006105710508959B01AC010A2E06945795F5
:103B5000479537952795BA95C9F7620F731F841F4C
:063B6000951FA01D089551
:103B6600C0000400201B5B306D1B5B324A1B5B3BB5
:103B760048000A467265654D454D3A25642028621F
:103B860079746573290A0A006E756C6C70006D6134
:103B9600696E00202025730A002F6465762F000ABF
:103BA6000D0074656D70657261747572613A2025D9
:103BB60066202020202068756D656461643A2025A2
:043BC60066200A006B
:00000001FF
